:020000040800F2
:1000000000000120A9360008B9350008BB350008FA
:10001000BD350008BF350008C135000800000000EC
:10002000000000000000000000000000C3350008D0
:10003000C535000800000000C7350008C9350008B4
:10004000F9360008F9360008F9360008F9360008D4
:10005000F9360008F9360008F9360008F9360008C4
:10006000F9360008F9360008F9360008F9360008B4
:10007000F9360008F9360008F9360008F9360008A4
:10008000F9360008F9360008F9360008F936000894
:10009000F9360008F9360008F9360008F936000884
:1000A000F9360008F9360008F9360008F936000874
:1000B000CB3500080000000000000000F936000801
:1000C000F93600080000000000000000F9360008C2
:1000D00000000000F9360008F936000800000000B2
:1000E000F9360008F93600080000000000000000A2
:1000F0000000000000000000000000000000000000
:10010000000000000000000000000000F9360008B8
:100110000000000000000000F9360008F936000871
:10012000F9360008F9360008F9360008F9360008F3
:10013000F936000800000000000000000000000088
:10014000F9360008F9360008F9360008F9360008D3
:10015000F9360008F9360008F9360008F9360008C3
:10016000F9360008F9360008F936000800000000EA
:10017000F9360008F9360008000000000000000011
:10018000F9360008F9360008F936000800000000CA
:1001900010B5054C237833B9044B13B10448AFF3C1
:1001A00000800123237010BD10010020000000001A
:1001B000A08C01080C4B43B10C480D4910B5AFF3AE
:1001C00000800C48036823B910BD0A48036833B99E
:1001D0007047094B002BF7D0BDE810401847064B7D
:1001E000002BF5D0184700BF00000000A08C0108CC
:1001F00014010020100100200000000081F00041E7
:1002000002E000BF83F0004330B54FEA41044FEAFB
:10021000430594EA050F08BF90EA020F1FBF54EA96
:10022000000C55EA020C7FEA645C7FEA655C00F032
:10023000E2804FEA5454D4EB5555B8BF6D420CDD03
:100240002C4480EA020281EA030382EA000083EA86
:10025000010180EA020281EA0303362D88BF30BD26
:1002600011F0004F4FEA01314FF4801C4CEA11317C
:1002700002D0404261EB410113F0004F4FEA0333DB
:100280004CEA133302D0524263EB430394EA050F66
:1002900000F0A780A4F10104D5F1200E0DDB02FAD5
:1002A0000EFC22FA05F2801841F1000103FA0EF269
:1002B000801843FA05F359410EE0A5F120050EF12F
:1002C000200E012A03FA0EFC28BF4CF0020C43FA60
:1002D00005F3C01851EBE37101F0004507D54FF06D
:1002E000000EDCF1000C7EEB00006EEB0101B1F5BD
:1002F000801F1BD3B1F5001F0CD349085FEA300003
:100300004FEA3C0C04F101044FEA445212F5800F0D
:1003100080F09A80BCF1004F08BF5FEA500C50F1AA
:10032000000041EB045141EA050130BD5FEA4C0C8D
:10033000404141EB010111F4801FA4F10104E9D116
:1003400091F0000F04BF01460020B1FA81F308BF0D
:100350002033A3F10B03B3F120020CDA0C3208DDD9
:1003600002F1140CC2F10C0201FA0CF021FA02F1B4
:100370000CE002F11402D8BFC2F1200C01FA02F124
:1003800020FA0CFCDCBF41EA0C019040E41AA2BF49
:1003900001EB0451294330BD6FEA04041F3C1CDA11
:1003A0000C340EDC04F11404C4F1200220FA04F031
:1003B00001FA02F340EA030021FA04F345EA0301DB
:1003C00030BDC4F10C04C4F1200220FA02F001FA9D
:1003D00004F340EA0300294630BD21FA04F029461F
:1003E00030BD94F0000F83F4801306BF81F48011B8
:1003F0000134013D4EE77FEA645C18BF7FEA655C2B
:1004000029D094EA050F08BF90EA020F05D054EAFC
:10041000000C04BF1946104630BD91EA030F1EBF01
:100420000021002030BD5FEA545C05D14000494105
:1004300028BF41F0004130BD14F580043CBF01F5F8
:10044000801130BD01F0004545F0FE4141F47001DE
:100450004FF0000030BD7FEA645C1ABF19461046B9
:100460007FEA655C1CBF0B46024650EA013406BFBA
:1004700052EA033591EA030F41F4002130BD00BF79
:1004800090F0000F04BF0021704730B54FF4806436
:1004900004F132044FF000054FF0000150E700BFB7
:1004A00090F0000F04BF0021704730B54FF4806416
:1004B00004F1320410F0004548BF40424FF0000103
:1004C0003EE700BF42004FEAE2014FEA31014FEA46
:1004D00002701FBF12F07F4393F07F4F81F0605195
:1004E000704792F0000F14BF93F07F4F704730B504
:1004F0004FF4607401F0004521F0004120E700BF97
:1005000050EA010208BF704730B54FF000050AE01D
:1005100050EA010208BF704730B511F0004502D51E
:10052000404261EB41014FF4806404F132045FEA20
:10053000915C3FF4DCAE4FF003025FEADC0C18BFC5
:1005400003325FEADC0C18BF033202EBDC02C2F1BB
:10055000200300FA03FC20FA02F001FA03FE40EA4D
:100560000E0021FA02F11444C1E600BF70B54FF04D
:10057000FF0C4CF4E06C1CEA11541DBF1CEA13552F
:1005800094EA0C0F95EA0C0F00F0DEF82C4481EA97
:10059000030621EA4C5123EA4C5350EA013518BFB7
:1005A00052EA033541F4801143F4801338D0A0FBA4
:1005B00002CE4FF00005E1FB02E506F00042E0FB51
:1005C00003E54FF00006E1FB03569CF0000F18BF57
:1005D0004EF0010EA4F1FF04B6F5007F64F54074FF
:1005E00004D25FEA4E0E6D4146EB060642EAC62192
:1005F00041EA55514FEAC52040EA5E504FEACE2EFF
:10060000B4F1FD0C88BFBCF5E06F1ED8BEF1004F01
:1006100008BF5FEA500E50F1000041EB045170BD7D
:1006200006F0004646EA010140EA020081EA0301C1
:10063000B4EB5C04C2BFD4EB0C0541EA045170BDBD
:1006400041F480114FF0000E013C00F3AB8014F137
:10065000360FDEBF002001F0004170BDC4F1000480
:10066000203C35DA0C341BDC04F11404C4F1200501
:1006700000FA05F320FA04F001FA05F240EA02005C
:1006800001F0004221F0004110EBD37021FA04F692
:1006900042EB06015EEA430E08BF20EAD37070BD4C
:1006A000C4F10C04C4F1200500FA04F320FA05F0AB
:1006B00001FA04F240EA020001F0004110EBD370AD
:1006C00041F100015EEA430E08BF20EAD37070BD1D
:1006D000C4F1200500FA05F24EEA020E20FA04F3F6
:1006E00001FA05F243EA020321FA04F001F00041A5
:1006F00021FA04F220EA020000EBD3705EEA430E16
:1007000008BF20EAD37070BD94F0000F0FD101F044
:100710000046400041EB010111F4801F08BF013C7D
:10072000F7D041EA060195F0000F18BF704703F0BB
:100730000046520043EB030313F4801F08BF013D42
:10074000F7D043EA0603704794EA0C0F0CEA1355FE
:1007500018BF95EA0C0F0CD050EA410618BF52EAB8
:100760004306D1D181EA030101F000414FF00000BE
:1007700070BD50EA410606BF1046194652EA4306CC
:1007800019D094EA0C0F02D150EA013613D195EA40
:100790000C0F05D152EA03361CBF104619460AD188
:1007A00081EA030101F0004141F0FE4141F4700192
:1007B0004FF0000070BD41F0FE4141F4780170BD82
:1007C00070B54FF0FF0C4CF4E06C1CEA11541DBFE7
:1007D0001CEA135594EA0C0F95EA0C0F00F0A7F8E9
:1007E000A4EB050481EA030E52EA03354FEA013116
:1007F00000F088804FEA03334FF0805545EA131329
:1008000043EA12634FEA022245EA111545EA1065F0
:100810004FEA00260EF000419D4208BF964244F187
:10082000FD0404F5407402D25B084FEA3202B61AA6
:1008300065EB03055B084FEA32024FF480104FF47A
:10084000002CB6EB020E75EB030E22BFB61A7546EE
:1008500040EA0C005B084FEA3202B6EB020E75EB81
:10086000030E22BFB61A754640EA5C005B084FEAE9
:100870003202B6EB020E75EB030E22BFB61A7546B6
:1008800040EA9C005B084FEA3202B6EB020E75EBC1
:10089000030E22BFB61A754640EADC0055EA060E82
:1008A00018D04FEA051545EA16754FEA06164FEAC5
:1008B000C30343EA52734FEAC2025FEA1C1CC0D171
:1008C00011F4801F0BD141EA00014FF000004FF0FE
:1008D000004CB6E711F4801F04BF01430020B4F1BF
:1008E000FD0C88BFBCF5E06F3FF6AFAEB5EB030C77
:1008F00004BFB6EB020C5FEA500C50F1000041EB74
:10090000045170BD0EF0004E4EEA113114EB5C0440
:10091000C2BFD4EB0C0541EA045170BD41F4801113
:100920004FF0000E013C90E645EA060E8DE60CEA1B
:10093000135594EA0C0F08BF95EA0C0F3FF43BAF38
:1009400094EA0C0F0AD150EA01347FF434AF95EAEF
:100950000C0F7FF425AF104619462CE795EA0C0FD3
:1009600006D152EA03353FF4FDAE1046194622E7A0
:1009700050EA410618BF52EA43067FF4C5AE50EA7A
:1009800041047FF40DAF52EA43057FF4EBAE12E76A
:100990004FF0FF3C06E000BF4FF0010C02E000BF4B
:1009A0004FF0010C4DF804CD4FEA410C7FEA6C5C2E
:1009B0004FEA430C18BF7FEA6C5C1BD001B050EAD1
:1009C000410C0CBF52EA430C91EA030F02BF90EABC
:1009D000020F0020704710F1000F91EA030F58BF7B
:1009E000994208BF90422CBFD8176FEAE37040F0DD
:1009F000010070474FEA410C7FEA6C5C02D150EA7B
:100A0000013C07D14FEA430C7FEA6C5CD6D152EA35
:100A1000033CD3D05DF8040B704700BF84461046FA
:100A200062468C461946634600E000BF01B5FFF7F9
:100A3000B7FF002848BF10F1000F01BD4DF808EDC9
:100A4000FFF7F4FF0CBF012000205DF808FB00BF9A
:100A50004DF808EDFFF7EAFF34BF012000205DF8F4
:100A600008FB00BF4DF808EDFFF7E0FF94BF012041
:100A700000205DF808FB00BF4DF808EDFFF7CEFF42
:100A800094BF012000205DF808FB00BF4DF808ED81
:100A9000FFF7C4FF34BF012000205DF808FB00BF52
:100AA0004FEA410212F5001215D211D56FF4787396
:100AB000B3EB625212D94FEAC12343F0004343EA39
:100AC000505311F0004F23FA02F018BF4042704714
:100AD0004FF00000704750EA013005D111F000409E
:100AE00008BF6FF0004070474FF00000704700BF34
:100AF0004A0011D212F5001211D20DD56FF478739D
:100B0000B3EB62520ED44FEAC12343F0004343EAF1
:100B1000505323FA02F070474FF00000704750EA3C
:100B2000013002D14FF0FF3070474FF000007047A6
:100B300053B94AB9002908BF00281CBF4FF0FF3144
:100B40004FF0FF3000F07AB9ADF1080C6DE904CE3A
:100B500000F006F8DDF804E0DDE9022304B0704798
:100B60002DE9F0478C460D460446089E002B51D1D6
:100B70008A4217466DD9B2FA82FEBEF1000F0BD041
:100B8000CEF1200C01FA0EF520FA0CFC02FA0EF759
:100B90004CEA050C00FA0EF44FEA174A250CBCFB90
:100BA000FAF81FFA87F90AFB18CC45EA0C4508FB4E
:100BB00009F3AB420AD9ED1908F1FF3280F0238125
:100BC000AB4240F22081A8F102083D44ED1AA4B2E4
:100BD000B5FBFAF00AFB105544EA054400FB09F99D
:100BE000A14509D9E41900F1FF3380F00A81A1453C
:100BF00040F2078102383C44A4EB090440EA084073
:100C00000021002E61D024FA0EF4002334607360BA
:100C1000BDE8F0878B4207D9002E54D0002186E82A
:100C200021000846BDE8F087B3FA83F1002940F0BF
:100C30008E80AB4202D3824200F2FA80841A65EBC6
:100C400003050120AC46002E3FD086E81010BDE819
:100C5000F08712B90127B7FBF2F7B7FA87FEBEF1AA
:100C6000000F34D1EB1B3A0C1FFA87FC0121B3FBB8
:100C7000F2F8250C02FB183345EA03450CFB08F398
:100C8000AB4207D9ED1908F1FF3002D2AB4200F2B6
:100C9000D1808046ED1AA3B2B5FBF2F002FB1055ED
:100CA00043EA05440CFB00FCA44507D9E41900F114
:100CB000FF3302D2A44500F2B8801846A4EB0C041E
:100CC00040EA08409DE731463046BDE8F087CEF166
:100CD000200405FA0EF307FA0EF720FA04F83A0C8E
:100CE00025FA04F448EA0308B4FBF2F14FEA184588
:100CF00002FB11441FFA87FC45EA044501FB0CF393
:100D0000AB4200FA0EF409D9ED1901F1FF3080F081
:100D10008A80AB4240F2878002393D44EB1A1FFAC9
:100D200088F5B3FBF2F002FB103345EA034500FB04
:100D30000CF3AB4207D9ED1900F1FF386FD2AB428B
:100D40006DD902383D44EB1A40EA01418FE7C1F109
:100D5000200722FA07F88B4005FA01F448EA03035A
:100D600020FA07FE4FEA134CFD404EEA040EB5FB95
:100D7000FCF94FEA1E440CFB19551FFA83F844EAAC
:100D8000054509FB08F4AC4202FA01F200FA01FA47
:100D900008D9ED1809F1FF3043D2AC4241D9A9F18D
:100DA00002091D442D1B1FFA8EFEB5FBFCF00CFB47
:100DB00010554EEA054400FB08F8A04507D9E41891
:100DC00000F1FF3529D2A04527D902381C4440EA5A
:100DD0000940A4EB0804A0FB02894C45C6464D46D9
:100DE00015D312D056B1BAEB0E0364EB050404FA26
:100DF00007F7CB401F43CC40376074600021BDE84B
:100E0000F0871846F8E69046E0E6C245EAD2B8EB2D
:100E1000020E69EB03050138E4E72846D7E74046B0
:100E200091E78146BEE7014678E702383C4445E752
:100E3000084608E7A8F102083D442BE7704700BFC9
:100E400010F8012B11F8013B012A28BF9A42F7D074
:100E5000D01A7047034613F8012B002AFBD1181A49
:100E6000013870474FEA410C7FEA6C5C02D150EACE
:100E7000013C0AD14FEA430C7FEA6C5C02D152EA92
:100E8000033C02D14FF0000070474FF00100704763
:100E90004FEA4102B2F1E04324BFB3F5001CDCF19C
:100EA000FE5C0DD901F0004C4FEAC0024CEA5070D4
:100EB000B2F1004F40EB830008BF20F00100704703
:100EC00011F0804F21D113F13872BCBF01F0004006
:100ED000704741F480114FEA5252C2F11802C2F138
:100EE000200C10FA0CF320FA02F018BF40F00100B9
:100EF0004FEAC1234FEAD32303FA0CFC40EA0C006B
:100F000023FA02F34FEA4303CCE77FEA625307D1A7
:100F100050EA01331EBF4FF0FE4040F440007047DE
:100F200001F0004040F0FE4040F40000704700BF78
:100F3000074B9B6813F0010301BF8268096822F424
:100F40007C120A4312BF012082601846704700BF1E
:100F500000000450836813F0010330B501D0012074
:100F600030BD91E82400C46889682A430A4324F408
:100F7000804121F038010A43C260184630BD0000AC
:100F80008368DB07F0B513D50120F0BDC3688A681C
:100F90003B4043EA0C03134343EA0E0333432B4322
:100FA000C360036B23F00F031C4304630020F0BDF8
:100FB0004C68074FD1F800C0D1F80CE00E694D69BC
:100FC000002CE3D1C2683A4042EA0C03E4E700BFD8
:100FD0003CC0F0FF0146007A0B6810B5002800F015
:100FE0008280002B49D04A7A012A29D003D3022AD1
:100FF0002FD0012008E0454A506820EA03005060E5
:1010000010681843106000208A7A6AB1022A24D03E
:10101000032A2BD0012A2DD13C4AD46824EA0304A8
:10102000D4609468234393604B68002B6DD04A7A58
:10103000012A3ED023D3022A44D040F0040026E007
:10104000324A106820EA030010605068184350606C
:10105000D9E72E4A10681843F6E72C4A946824EA28
:1010600003049460D4682343D360DDE7274A94687F
:101070001C43F6E740F00200D6E71846D4E7234ABF
:10108000546A24EA03045462146A1C4314628A7A80
:10109000002A3AD0022A19D0032A20D0012A33D1BB
:1010A0001A4AD16A21EA0301D162916A0B43936221
:1010B00010BD164A146A24EA03041462546A1C43DD
:1010C0005462E4E7114A146A1C43F6E70F4A916A36
:1010D00021EA03019162D16A0B43D36210BD0B4A2E
:1010E000916A1943F6E7094A1468DB431C4014600F
:1010F0005468234053604B68146ADB431C401462FD
:10110000516A0B40536210BD012010BD0004014024
:101110002DE9F0430D6895FAA5F4B4B1B4FA84F45E
:101120004FF0010E03260F2735FA04F30FD14B6859
:10113000013B012B06D84368CA6823EA05035543DF
:101140001D4345600020BDE8F0832024E8E70EFA47
:1011500004F32B4076D0D1F804C0D0F8009093FA75
:10116000A3F2002A70D0B2FA82F84FEA480806FAD1
:1011700008F829EA080893FAA3F2002A67D0B2FA1D
:1011800082F252000CFA02F242EA080202600CF10A
:10119000FF32012A1CD8D1F80880D0F8089093FAC1
:1011A000A3F2002A55D0B2FA82F2520006FA02F2F5
:1011B00029EA020293FAA3F9B9F1000F4BD0B9FA68
:1011C00089F94FEA490908FA09F949EA02028260F5
:1011D000D1F81080D0F80C9093FAA3F2002A3DD0F9
:1011E000B2FA82F2520006FA02F229EA020293FAF5
:1011F000A3F9B9F1000F33D0B9FA89F94FEA4909D7
:1012000008FA09F949EA0202BCF1020FC26019D1D9
:10121000FF2BD1F814C02AD8D0F8208093FAA3F27B
:101220000AB3B2FA82F2920007FA02F228EA020244
:1012300093FAA3F3CBB1B3FA83F39B000CFA03F355
:101240001343036201346FE74FF020088DE720223B
:1012500097E72022A9E74FF02009B2E72022C1E753
:101260004FF02009CAE72022DDE72023E5E7D0F888
:1012700024801A0A92FAA2F38BB1B3FA83F39B008B
:1012800007FA03F328EA030392FAA2F24AB1B2FA88
:1012900082F292000CFA02F213434362D2E7202357
:1012A000EDE72022F5E70000024B1868C0F380202C
:1012B000704700BF00100240024BD3F89000C0F30B
:1012C0004000704700100240024B1868C0F3C00095
:1012D000704700BF00100240034B044A9B68C3F3F1
:1012E0000313D35CD840704700100240E299010814
:1012F000034B044A9B68C3F30223D35CD840704776
:1013000000100240F2990108034B044A9B68C3F3A2
:10131000C223D35CD840704700100240F299010804
:101320001E4AD36803F00303022B10B534D0032BFD
:101330000BD01B49FFF7C8FF0446F0B9FFF7C4FF05
:10134000B0B1136851F8240000E01648D468D168A1
:10135000D368C4F30212C3F3416301320133B0FB1B
:10136000F2F0C1F3062250435B00B0FBF3F010BD76
:10137000D2F89440C4F30324E4E7FFF7A5FF28B1B3
:101380001368C3F3031351F82300DFE7D2F8943056
:101390001B0903F0F003F6E70348D7E7001002400B
:1013A000FC99010800127A000024F4001B4A93689B
:1013B00003F00C0310B50C2B0ED8DFE803F00D0D75
:1013C0000D0D2D0D0D0D070D0D0D0900144810BD4F
:1013D000BDE81040FFF7A4BFFFF776FF114C0146B0
:1013E00058B9FFF771FF18B1136854F8210010BD08
:1013F000D2F89410C1F30321F7E7FFF765FF28B196
:101400001368C3F3031354F8230010BDD2F89430CB
:101410001B0903F0F003F6E7034810BD001002407B
:1014200000127A00FC9901080024F400032808B592
:1014300029D12E4B2E4AD3F8883003F0030343F40E
:101440004033934209D0B3F1031F0DD0013A9342C8
:1014500011D1BDE80840FFF7A9BFFFF725FF08B984
:10146000002008BD234808BDFFF726FF0028F7D05D
:101470004FF4004008BDFFF799FFFFF72DFFBDE8CF
:101480000840FFF741BF0C28EAD1184BD3F8883049
:1014900003F00C0343F44023A3F540230C2BDFD8C7
:1014A00001A252F823F000BFDD1400086114000807
:1014B0006114000861140008531400086114000846
:1014C00061140008611400085B140008611400082E
:1014D000611400086114000869140008FFF766FF32
:1014E000FFF7FAFEBDE80840FFF702BF0010024018
:1014F000020003000024F4000246006810F04000DF
:10150000F0B504D00120F0BD8B8C1361F0BD91E8E3
:1015100088003B43CF684D6916680C6A3B430F69EE
:101520003B438F692B433B43CF6926F47F463B43C4
:1015300026F0BF0623433343136053688E6823F4B9
:10154000706346EA154523F004031D43B4F5005FBC
:101550005560D9D0F0BD00001A4A0368904210B51A
:1015600002D0B0F1804F09D14C6823F07003904253
:1015700043EA040309D0B0F1804F06D0124A9042EA
:1015800003D002F58062904203D1CA6823F440730D
:10159000134303608B68C3620B888362094B9842D4
:1015A00007D003F5A053984203D003F58063984217
:1015B00001D10B690363436943F0010343610020D8
:1015C00010BD00BF002C014000400140B1F5807FFC
:1015D00030B500F0B58005D801293BD0102973D073
:1015E000012030BDB1F5803F00F0E580B1F5801FEE
:1015F00000F00E81B1F5805FF2D1036A156823F423
:1016000080530362036A4468C16921F0807121F448
:10161000E64141EA0521156923F4005343EA053305
:10162000556823F4805343EA0533904DA84207D010
:1016300005F5A055A84203D005F58065A84204D160
:10164000956924F4804444EA8514D2684460C161F9
:10165000026436E0036A156823F001030362036A3B
:101660004168846924F4803424F073042C431569A0
:1016700023F002032B43556823F001032B437B4DDA
:10168000A84207D005F5A055A84203D005F580650E
:10169000A84212D1556923F0080343EA85039568EF
:1016A00023F0040343EA8503956921F480712943FB
:1016B000D56921F4007141EA4501D2684160846135
:1016C00042630362002030BD036A156823F01003F3
:1016D0000362036A4168846924F0807424F4E64458
:1016E00044EA0524156923F0200343EA05135568ED
:1016F00023F0100343EA05135C4DA84207D005F51B
:10170000A055A84203D005F58065A84213D15569BC
:1017100023F0800343EA8513956823F0400343EAEE
:101720008513956921F4806141EA8501D56921F429
:10173000006141EAC501D268416084618263C0E70B
:10174000036A156823F480730362036A4168C469FD
:1017500024F4803424F073042C43156923F40073BB
:1017600043EA0523556823F4807343EA05233F4D7C
:10177000A84207D005F5A055A84203D005F580651D
:10178000A84213D1556923F4006343EA8523956881
:1017900023F4806343EA8523956921F4805141EA6B
:1017A0000511D56921F4005141EA4511D268416023
:1017B000C461C26385E7036A146823F4803303625B
:1017C000036A416D21F4803121F070010C431169ED
:1017D00023F4003343EA0143516823F4803343EA9E
:1017E00001432249884207D001F5A051884203D025
:1017F00001F58061884206D14168956921F4803104
:1018000041EA052141604465D268816D826558E7EF
:10181000036A146823F480130362036A416D21F0A4
:10182000807121F4E04141EA0424116923F400139A
:1018300043EA0153516823F4801343EA01530B49EF
:10184000884207D001F5A051884203D001F580619C
:10185000884206D14168956921F4802141EA8521B9
:101860004160D2684465C2652BE700BF002C01408F
:1018700038B50368DB0704460D460BD5012038BD9B
:101880001F4B9C42FAD10C2020E00344B3FBF2F33F
:101890009BB232E0EA686B68016813432A6913431C
:1018A000AA691343174A0A40134303604368AA68AE
:1018B00023F440531343436083686A6923F44073FD
:1018C00013438360104B9842DAD10320FFF7AEFD3B
:1018D0000028D3D02A68002AD0D0AB69B3F5004FD6
:1018E0004FEA5203D1D103EB4003B3FBF2F34FF6BF
:1018F000F0721A40C3F342031343E360002038BD83
:1019000000440040F369FFEF003801404FF47A7360
:10191000B0FBF3F0034B0022013858609A600522B7
:101920001A60704710E000E0014B1860704700BF7C
:101930003800002082B00190019B0BB902B07047C3
:10194000019B013B0193F7E742F2B8235843FFF7AD
:10195000F1BF00EBC000FFF7EDBF000083689B07FD
:10196000FCD5034B01739A681206FCD4704700BF84
:10197000003001404FF090434FF400629A620A4BEE
:1019800041B99A681206FCD44FF090434FF40062BC
:101990009A6170479A689207FCD530F8022B52BAC8
:1019A0009A810139ECE700BF0030014070B54FF07B
:1019B00090444FF480654FF40066A562C1B2A66200
:1019C0000248FFF7CBFFA661A56170BD0030014062
:1019D00007B502AB012123F8020D1846FFF7CAFF35
:1019E00003B05DF804FB000038B54FF090444FF4AD
:1019F00000650146A5620248FFF7B0FFA56138BD4A
:101A000000300140014B9879FFF7D0BF2E01002034
:101A100070B5084C0646E0790D46FFF7C7FF304623
:101A2000FFF7D6FF207AFFF7C1FF2846BDE87040D8
:101A3000FFF7CEBF2E01002008B5FFF7E9FFFFF743
:101A4000E1FF034B1888BDE80840FFF7C1BF00BFA6
:101A50002C0100200A4B70B500211C885B880646CB
:101A600008465C43FFF7D4FFFFF7CCFF0025A542F3
:101A700000D170BD3046FFF7ABFF0135F7E700BF7F
:101A80002E01002038B58C4C8025A5620520FFF77B
:101A90005BFFA5611420FFF757FF884BF0221A80E7
:101AA0004FF4A0725A802C242A222B25CB209C7123
:101AB0001D72DA71FFF77AFF3920FFF795FF204694
:101AC000FFF792FF0020FFF78FFF3420FFF78CFF16
:101AD0000220FFF789FFCF20FFF768FF0020FFF704
:101AE00083FFC120FFF780FF3020FFF77DFFE82054
:101AF000FFF75CFF8520FFF777FF0020FFF774FFFB
:101B00007820FFF771FFEA20FFF750FF0020FFF772
:101B10006BFF0020FFF768FFED20FFF747FF642011
:101B2000FFF762FF0320FFF75FFF1220FFF75CFF64
:101B30008120FFF759FFF720FFF738FF2020FFF73C
:101B400053FFC020FFF732FF2320FFF74DFFC120D6
:101B5000FFF72CFF1020FFF747FFC520FFF726FFF8
:101B60003E20FFF741FF2820FFF73EFFC720FFF789
:101B70001DFF8620FFF738FF3620FFF717FF4820AC
:101B8000FFF732FF3A20FFF711FF5520FFF72CFF38
:101B9000B120FFF70BFF0020FFF726FF1820FFF70B
:101BA00023FFB620FFF702FF0820FFF71DFF82206A
:101BB000FFF71AFF2720FFF717FFF220FFF7F6FEC7
:101BC0000020FFF711FF2620FFF7F0FE0120FFF7AE
:101BD0000BFFE020FFF7EAFE0F20FFF705FF3120A3
:101BE000FFF702FF2846FFF7FFFE0C20FFF7FCFE81
:101BF0000E20FFF7F9FE0820FFF7F6FE4E20FFF754
:101C0000F3FEF120FFF7F0FE3720FFF7EDFE07208F
:101C1000FFF7EAFE1020FFF7E7FE0320FFF7E4FEE0
:101C20000E20FFF7E1FE0920FFF7DEFE0020FFF7A0
:101C3000DBFEE120FFF7BAFE0020FFF7D5FE0E2005
:101C4000FFF7D2FE1420FFF7CFFE0320FFF7CCFEF4
:101C50001120FFF7C9FE0720FFF7C6FE3120FFF76E
:101C6000C3FEC120FFF7C0FE4820FFF7BDFE0820DD
:101C7000FFF7BAFE0F20FFF7B7FE0C20FFF7B4FE08
:101C80003120FFF7B1FE3620FFF7AEFE0F20FFF741
:101C9000ABFE1120FFF78AFE7820FFF755FE2920C2
:101CA000FFF784FE2046FFF781FE4FF6FF70BDE888
:101CB0003840FFF7CFBE00BF000400482E010020CF
:101CC0002DE9F04F141A002C85B082468B46A3EB09
:101CD00001051ADC1BD064424FF0FF32002D18DCE6
:101CE00019D06D424FF0FF33AC42A146B8BFA946B0
:101CF000002609F10101B046374601910198B1B2C1
:101D000081420ADD05B0BDE8F08F0122E6E72246F8
:101D1000E4E70123E8E72B46E6E71FFA8BF11FFA19
:101D20008AF0039302922744FFF786FE029A039BF0
:101D30004F45A844C4BFA7EB09079244C845C4BF98
:101D4000A8EB09089B440136D8E72DE9F04F540071
:101D500085B081468A469046C4F103040027BEB28E
:101D60001FFA88F509EB0602AAEB050392B29BB2B3
:101D70001946104601930392FFF75EFEAAEB060197
:101D800009EB05038AB29BB21146184600920293F2
:101D90000AEB060BFFF750FE029B1FFA8BFB18465F
:101DA0005946FFF749FE039A05EB0A039BB210461A
:101DB00019460293A9EB0606FFF73EFE029BB6B258
:101DC000A9EB050519463046ADB2FFF735FE594679
:101DD0002846FFF731FE01993046FFF72DFE0099A6
:101DE0002846FFF729FE0137002CA9BFA7EB0803FF
:101DF00004EB870404EB830408F1FF38B4BF063416
:101E00000A34B845ABDA05B0BDE8F08F2DE9F04FE4
:101E100087B09846464D9DF840302F88203A0446BA
:101E2000894644484449D2B2002B36D000EB021315
:101E300002EB4202029301EB8203404A01934E46B9
:101E40004FF0000BD84559D0B8F10C0F0CBF019BD7
:101E5000029B13F80BA006F108039BB21AF0800F47
:101E600007D03146204604920393FFF7E5FD049A1C
:101E7000039B51880136B6B24FEA4A0AB1425FFA73
:101E80008AFA3BD9A6EB090141454CD101341388AC
:101E9000A4B2A34232D94E4647E000EB021002EB57
:101EA000420201EB820202929A46254A234B03909A
:101EB0004E46C24522D0B8F10C0F0CBF02990399CF
:101EC00011F80AB006F1080189B201911BF0800FE8
:101ED00004BF118829802046314618BF2F80059302
:101EE0000492FFF7A9FD059B049A59880136B6B202
:101EF0004FEA4B0BB1425FFA8BFB03D82F8007B040
:101F0000BDE8F08FA6EB0901414506D101341988DF
:101F1000A4B2A142F2D94E4602E00199B142D5D114
:101F20000AF1010AC5E79E4298D10BF1010B89E73E
:101F30002C010020F4920108808E01082E0100205F
:101F4000000000202DE9F04F87B09A469DF84080B0
:101F500005924FEA5803039300240AF1FF33054624
:101F60008B460646274604934FF00A09544502D192
:101F700007B0BDE8F08F049B1B1BDBB20122013BC5
:101F8000DBB2FF2B1AD1059BB3FBF2F2B2FBF9F3E4
:101F900009FB1322D3B2AFB90499A14212DD82B971
:101FA00000974346202259462846FFF72FFF039B00
:101FB0001D441E440134ADB2B6B2D7E709FB02F2AC
:101FC000DDE7012703F1300200230093D2B243463C
:101FD00059463046E9E72DE9F74F0D9E9DF83080D0
:101FE00002440B440D461FFA82FB9FB24FEA580988
:101FF000013E04465FFA80FA16F8012FA2F1200391
:102000005E2B02D903B0BDE8F08F5C4522BF45448A
:10201000ADB25446BD42F5D201230093204643465B
:1020200029464C44FFF7F2FEA4B2E5E7114A08B591
:1020300013680133632B13601AD807EE903AB8EE99
:10204000E70A16F005FDDFED0C7A0C4B9FED0C7ADC
:1020500020EE270AD3ED007A70EE677A4FF08042C7
:1020600067EE877AFCEEE77AC2ED0B7A83ED000A21
:1020700008BD00BF040000202EF9E43E3801002016
:1020800000247449034BDA691206FCD5C0B21885E6
:10209000704700BF004400402DE9F04101270F4E7A
:1020A00005460824B8464FF0904315F0800F4FF0D6
:1020B000100214BF9A619A620220C6F82880FFF7C6
:1020C00048FC013CB76102206D00FFF742FC14F0B0
:1020D000FF04EDB2E7D1BDE8F08100BF0004004885
:1020E0002DE9F041214F01260446BE620220FFF790
:1020F00030FC4FF090434FF4805210259D622046F3
:102100009A62FFF7C9FF0620FFF723FC0220BE6298
:10211000FFF71FFC3046FFF71CFC0220BE61FFF7F3
:1021200018FCBE620220FFF714FC0024B046022017
:10213000C7F82880FFF70DFCBE610220FFF709FCFD
:102140004FF0904364001B691B07A4B20BD4013D00
:1021500015F0FF05EBD14FF090434FF480529A6198
:102160002009BDE8F0810134A4B2F0E70004004882
:1021700070B586B00646002501AC3046FFF7B0FFCB
:1021800024F8150001350A2DF7D10022511C8BB21D
:1021900006A800EB430034F8125030F8146C0133F9
:1021A000B5429BB284BF24F8126020F8145C0A2B5D
:1021B000EED109290A46E9D100221346A1180232BC
:1021C00088880C2A03449BB2F8D10620B3FBF0F0B8
:1021D00006B070BD70B5074B054618780C46FFF782
:1021E000C7FF054B06461878FFF7C2FF2E802080F8
:1021F000012070BD080000200900002008B5054836
:1022000000F112011030FFF7E5FF034B28221A807E
:10221000012008BD100000203C01002073B50546D8
:102220000C4668460DF10201FFF7D4FF10B90020FB
:1022300002B070BD0DF1060101A8FFF7CBFF002829
:10224000F5D0BDF80400BDF80020904205D800F19B
:102250001D03934205DA9042E9D302F11D03834244
:10226000E5DBBDF80610BDF80230994205D801F152
:102270001D069E4205DA9942D9D303F11D068E420E
:10228000D5DB02440B4452105B102A8001202380CE
:10229000CEE700004FF0904310B51B692B4C13F0B4
:1022A000800F4CD178BB04F1120104F11000FFF74C
:1022B000B5FF70B3B4F92030D4ED066A07EE903A5A
:1022C000238A07EE103AF8EEE77AB8EEC77AE6EE20
:1022D000877AD4ED076AFCEEE77A17EE903A23820C
:1022E000B4F9223007EE903A638A07EE103AF8EE1E
:1022F000E77AB8EEC77AE6EE877AFCEEE77A17EE71
:10230000903A638205E004F1120104F11000FFF736
:1023100085FF94F91430002B05DBC0232375238A35
:10232000A381638AE381207D00F0800010BD00233B
:10233000A381E3814FF6FF7323826382F3E7237D5A
:102340001A06F4D503F07F032375ECE71000002094
:102350001C4B2DE9F04104461A8000F10D020C38A7
:102360000D460B4692B280B2FFF7AAFC04F10108B9
:1023700005F10D03A5F10C016F1C22469BB220460E
:102380001FFA88F8BFB289B2FFF79AFC661E394679
:102390004046FFF751FBB6B239466F1E3046BFB21A
:1023A000FFF74AFB39464046FFF746FB39463046C1
:1023B000FFF742FB294620460622BDE8F041FFF721
:1023C000C4BC00BF2C0100202DE9F04F87B0984617
:1023D000BDF848300393BDF84C300493BDF850303D
:1023E000504C0593504BBDF84070BDF8446010252B
:1023F0008A4691464D494FF478421A808346638855
:10240000228801910095A0212820FFF7E4FD48498A
:102410006388228801910095A0217820FFF7DBFDD9
:1024200044496388228801910095B4212820FFF750
:10243000D2FD41496388228801910095B42178201A
:10244000FFF7C9FD3D496388228801910095C821A5
:102450002820FFF7C0FD3A49638822880191009542
:10246000C8217820FFF7B7FD36496388228801919B
:102470000095DC212820FFF7AEFD334963882288D0
:1024800001910095DC217820FFF7A5FD2F49638895
:10249000228801910095F0212820FFF79CFD5A46E3
:1024A00000950423A0214020FFF74CFD52460095E3
:1024B0000423A0219020FFF745FD4A460095042300
:1024C000B4214020FFF73EFD424600950423B4218D
:1024D0009020FFF737FD3A4600950423C82140209D
:1024E000FFF730FD324600950423C8219020FFF706
:1024F00029FD039A00950423DC214020FFF722FDEB
:10250000049A00950423DC219020FFF71BFD21880D
:10251000059A10950323602007B0BDE8F04FFFF740
:1025200011BD00BF2E0100202C010020E4980108FD
:10253000E8980108EC980108F0980108F49801085F
:10254000F8980108FC98010800990108049901080D
:102550002DE9F04F944C2DED028B1F234FF6FF75A4
:102560002380924B91B028461D804FF47846FFF7A8
:1025700071FA28462680FFF76DFA8D4B00251B68FF
:10258000258028210193102308460093A02264236C
:10259000FFF721FD1421874C32460846FFF7D8FE8D
:1025A00000232575A3612E46636801209847237D8B
:1025B00003F0C002402A34D123F04003237510AB4E
:1025C00003EB8603228A23F8102C0136628A23F853
:1025D0000E2CF6B2731E032B22D8DFE803F0021094
:1025E0002F40142108464FF6FF72FFF7B1FE724BE1
:1025F00018884FF478421438142180B20EE06E4DE2
:10260000288814384FF6FF72142180B2FFF7A0FE1D
:10261000698814394FF4784289B21420FFF798FE84
:10262000002501350A20ADB2FFF78EF9B5F57A7FA6
:10263000BAD911B0BDEC028BBDE8F08F5E4D698850
:1026400014394FF6FF7289B21420FFF781FE6988B2
:102650002888143914384FF4784289B2CDE7BDF890
:102660003630BDF83270BDF83050BDF83460069396
:10267000FB1AA81B83EAE37180EAE072A1EBE37125
:10268000A2EBE07201FB01F302FB0230FDF7F8FE62
:1026900041EC100B16F080F951EC100BFEF728FA04
:1026A00083B208EE903ABDF838300793BDF83C305D
:1026B0000893089A079BBDF83AA0981ABDF83E30D7
:1026C0000993AAEB030383EAE37180EAE072A1EBCA
:1026D000E371A2EBE07201FB01F302FB0230FDF7B4
:1026E000CFFE41EC100B16F057F951EC100BFEF732
:1026F000FFF91FFA80FB07EE90BAB8EE687AF8EEA1
:10270000E77A87EE278A18EE100AFDF7DBFE22A390
:10271000D3E9002380468946FEF79AF968B920A3D9
:10272000D3E9002340464946FEF7B0F928B918EE30
:10273000903A13B1BBF1000F42D11F4B5988188852
:10274000143914384FF6FF7289B280B2FFF700FED9
:10275000142108464FF47842FFF7FAFDDFED177AAF
:10276000CDF804A028EE278A3246FCEEC87A394616
:10277000CDED0A7ABDF828300493099B0393089B9A
:102780000293079B00932846069BFFF71DFE00253A
:1027900009E700BFAFF30080CDCCCCCCCCCCEC3F74
:1027A0009A9999999999F13F2C01002000000020F5
:1027B0000C000020100000202E0100200000C84264
:1027C000079BE81AA7EB0A0383EAE37180EAE07249
:1027D000A1EBE371A2EBE07201FB01F302FB02301B
:1027E000FDF74EFE41EC100B16F0D6F8089B099A47
:1027F000F01A069B9B1A83EAE372A2EBE37280EA6B
:10280000E07102FB02F3A1EBE07101FB013059EC36
:10281000108BFDF735FE41EC100B16F0BDF8494664
:1028200040468DED0A0BFEF763F99DED0A0B80B271
:1028300007EE900A51EC100BF8EE678AFEF758F994
:1028400080B207EE900AF8EEE77A88EEA78A18EED3
:10285000100AFDF737FE97A3D3E900238046894687
:10286000FEF7F6F800287FF468AF94A3D3E90023BD
:1028700040464946FEF70AF900287FF45EAF079B01
:10288000DFF840B2F01A069BA3EB0A0383EAE37178
:1028900080EAE072A1EBE371A2EBE07201FB01F3CD
:1028A00002FB0230FDF7ECFD41EC100B16F074F862
:1028B000089BE81A099BFB1A83EAE37180EAE0723D
:1028C000A1EBE371A2EBE07201FB01F302FB02302A
:1028D00059EC108BFDF7D4FD41EC100B16F05CF8B1
:1028E000494640468DED0A0BFEF702F99DED0A0BB5
:1028F00080B207EE900A51EC100BF8EE678AFEF7F3
:10290000F7F880B207EE900AF8EEE77A88EEA78A29
:1029100018EE100AFDF7D6FD66A3D3E90023804622
:102920008946FEF795F838B964A3D3E900234046F9
:102930004946FEF7ABF828B1BBF80210BBF800001F
:102940001439FEE6BBF80000BBF80210A0F1280322
:1029500007EE103A731B07EE903AB8EEC77AF8EE1E
:10296000E77A3544C7EE276A07EE900AB8EEE77AB1
:1029700007EE905AF8EEE77AB6EE005AA6EEE77A3E
:10298000C4ED066A27EE057AFDEEC77A17EE903A97
:102990002384A1F1280305EE903AAAEB070306EE83
:1029A000103AF8EEE55AB8EEC66A07EE901A85EED0
:1029B000867A5744B8EEE76A07EE907AF8EEE77A3F
:1029C00084ED077AA7EE676A66EE057AFDEEE77A90
:1029D00017EE903AFDEEE67A638417EE902A82EACB
:1029E000E273A3EBE273022B09DCFDEEC77A17EE6C
:1029F000902A82EAE273A3EBE273022B2FDD1439F3
:102A000014384FF6FF7289B280B2FFF7A1FC14218F
:102A100008464FF47842FFF79BFC2149BBF802308F
:102A2000BBF8002001911021009128201A21FFF706
:102A3000D2FA94F824601B4A002E0CBF0123002315
:102A400084F82430184B05D190211170D0221A70CF
:102A50003546A9E5D021117090221A7097E6134BE4
:102A60001F224FF6FF701A80FEF7F4FF1049BBF8E3
:102A70000230BBF8002001911021009123206E212B
:102A8000FFF7A9FA4FF47A70FEF75EFF4FF6FF707A
:102A900011B0BDEC028BBDE8F04FFEF7DBBF00BF0D
:102AA0000C99010808000020090000202C010020DA
:102AB0001E990108CDCCCCCCCCCCEC3F9A999999FD
:102AC0009999F13F2E0100202DE9F041B1F9026002
:102AD00080460D461746B5F906309E4204DD404655
:102AE000BDE8F0410BF0F6BAB1B22888FEF790FFCE
:102AF000FEF788FFB5F90440B5F90030E41A013457
:102B000038462146FEF736FF07EB44070136E2E779
:102B100010B500200C46FFF7BDFB002814BF0123B1
:102B20000023A373064A074B04D00749088A498A41
:102B30001080198012881B8822806380002010BDBD
:102B4000381400203A1400201000002010B5124C58
:102B50008AB0FEF797FFFFF751FB00F049FE002215
:102B60000E494FF4166320460BF07BF968460BF0D4
:102B700038F901940A4C0B4B039368460BF08EF91D
:102B800020460BF03DFB012323702046064B63607B
:102B90000BF054FB0AB010BD001400203E010020D1
:102BA0001C140020C92A0008112B0008054BDA6C00
:102BB0000243DA64DB6C82B018400190019B02B0E2
:102BC000704700BF00100240054B9A6D02439A65A2
:102BD0009B6D82B018400190019B02B0704700BF0E
:102BE00000100240054B1A6E02431A661B6E82B03B
:102BF00018400190019B02B0704700BF00100240D6
:102C000008B50BF0FBF9BDE8084000F076BD000008
:102C1000062908B505D1034815F0A4FA024B002295
:102C20001A6008BDAF9901083C140020034BDA6913
:102C30001206FCD580B21885704700BF00380140ED
:102C400038B5082105468024254214BFC020FC2049
:102C5000FFF7ECFF01394FEA5404F5D138BD38B520
:102C6000054608461446FFF7EBFF2846FFF7E8FF46
:102C70002046BDE83840FFF7E3BF00003D4B1A682F
:102C800022F0070242F0040210B51A601A6802F03E
:102C90000702042AFAD1384A384C136823F4C06377
:102CA00043F400731360236843F480232360236894
:102CB00043F48033236023689903FCD5E268304BEA
:102CC000134043F4A05343F00303E360E36843F08D
:102CD0008073E360236843F08073236023689A0164
:102CE000FCD5E36823F0730343F00303E360236937
:102CF00023F0C06323F4FE4343F40063236123699C
:102D000043F080732361236843F08063236023686A
:102D10001B01FCD5A36843F00303A360A36803F081
:102D20000C030C2BFAD1A368164823F0F003A36020
:102D3000A36823F4E063A360A36823F46053A36053
:102D4000FEF7E4FD0F48FEF7EFFDD4F8883023F0DE
:102D50000303C4F88830D4F8883023F00C03C4F897
:102D60008830D4F8883023F0405343F08053C4F8BF
:102D7000883010BD0020024000700040001002406A
:102D80008C80FFF900B4C4042DE9F04F012097B006
:102D9000FFF728FF4FF08050FFF716FFC049C14BE7
:102DA000CA68C14D22F4E0621204120C13430024DD
:102DB000CB60FFF763FF182221460CA84FF0904626
:102DC00006940794089415F068F90120FFF7EEFEC9
:102DD00041F650474FF089080220FFF7E7FEB7623F
:102DE0000823C5F828800CA930460C930D94109444
:102DF000FEF78EF90C970CA9012730460D970E941B
:102E00000F941094FEF784F90CA92846CDF8308071
:102E10000D970E940F941094FEF77AF9A34AD36895
:102E20004FF4704123F4704391FAA1F18025D360EF
:102E300006A8069507948DF820708DF821408DF82E
:102E40002270FEF7C7F8F36895FAA5F5002D00F09B
:102E50006783B5FA85F503226D0002FA05F523EACA
:102E60000505802393FAA3F14FF09041CD600968E6
:102E700093FAA3F3002B00F05583B3FA83F35B00BE
:102E800002FA03F321EA0303802292FAA2F24FF03E
:102E9000904414222360002106A815F0FEF81822A1
:102EA00000210CA815F0F9F84FF40060FFF79AFE26
:102EB0000120FFF77BFE4FF4407320467C4C0C93BF
:102EC0000025012602230CA90D930E950F95109550
:102ED0001196FEF71DF94FF6FF7306A92046ADF8CF
:102EE00018500795089309950A95FEF735FB236856
:102EF00023F080032360A36823F4803323F00703C7
:102F00003343A360A36923F003033343A361A3699D
:102F100023F00C03A361A36923F0F003A361236AE8
:102F200023F00A032362A36923F4407343F48073FC
:102F3000A361A36923F44063A361A36923F47043ED
:102F4000A361236A23F0A0032362636823F0700364
:102F50006360636823F470036360A36823F08003F5
:102F6000A3602946142201A815F097F829462022CB
:102F70000CA815F092F8182229460DEB020015F066
:102F80008CF83046FFF720FE454BDA68C2F3022288
:102F9000C2F10703042B28BF0423111D06FA03F313
:102FA000062903F1FF3388BFD51E03F00C03AB40A5
:102FB000404A1B01DBB282F81C334FF08053136090
:102FC0004FF080454F230024ADF8043001A93A4B5F
:102FD00003934FF0804002940494FEF7BDFA2B68EF
:102FE0004FF0300823F080032B600DEB08027B23A9
:102FF00001212846CDF830800F930D940E94109443
:10300000FEF7E4FAAB6923F00403AB61AB6823F08D
:103010000803AB60AB6823F48043AB60AB6823F478
:103020003F43AB606B6823F070036B60AB6823F0C9
:103030008003AB60AB6943F00803AB610120FFF78D
:10304000B5FD0227202306A94FF09040069307976D
:103050000B96089409940A94FEF75AF81C2221460C
:103060000DEB080015F019F818220DEB02002146AF
:1030700015F013F84FF40030FFF7A6FD0120FFF71D
:1030800095FD4FF0030904234FF0070A06A94FF0FE
:1030900090400A4E069307974FF4004B10E000BF94
:1030A00000ED00E00003FA050004004800000140C4
:1030B000002C014000E100E020A107000044004096
:1030C000CDF8209009940A94CDF82CA0FEF720F8B2
:1030D00006A94FF090400797CDF818B0CDF8209092
:1030E00009940A94CDF82C90FEF712F84FF4E133CE
:1030F0000DEB08010C9330460C2310930D940E94A5
:103100000F9411941294FEF7B3FB736823F4904369
:103110007360B36823F02A03B360336843F001039C
:103120003360282221460DEB080014F0B6FF182268
:103130000DEB0200214614F0B0FF4FF48050FFF772
:1031400051FD0120FFF732FD3846FFF72FFD052620
:1031500006A94FF09040069707970B96CDF8209060
:1031600009940A94FDF7D4FF06A9D048CDF8188039
:1031700007970B96CDF8209009940A94FDF7C8FFA5
:103180004FF48273DFF858830D934FF4E0630E938E
:103190004FF4007311930CA91023404612930C9422
:1031A0000F94109413941494CDF854A0FEF7A4F93E
:1031B000D8F80430BE4E23F01003C8F80430D8F815
:1031C000043023F00803C8F80430D8F8043018227B
:1031D00043F48053C8F8043021460DEB02000194FB
:1031E0000294039414F059FF182221460CA800946D
:1031F00014F053FF4FF40050FFF7D8FC3846FFF7A8
:10320000D5FC0CA9A9480C97CDF834901094FDF783
:103210007FFF01A93046019402940394FDF79AFEC2
:1032200006A9304606940794089409940A940B94CE
:10323000FDF7A6FEB3689F4823F0204323F03F0329
:10324000B360B36823F0104316A923F03F0343F0A3
:103250008053B36041F8584DFDF76AFE336B964AD0
:1032600023F4F86343F480633363536823F4E01377
:103270005360D6F8B03023F48033C6F8B0301C2247
:1032800021460CA814F009FF18220DEB020021467C
:1032900014F003FF4FF48040FFF7A4FC3846FFF71B
:1032A00085FC4023079706A9844F80480693CDF8F4
:1032B000209009940A94CDF82CA0FDF729FF804BAB
:1032C0000C930CA90823384610930D940E940F9478
:1032D000CDF848B0FEF7CCFA7B687A4A7A4843F4D6
:1032E00000337B603B6843F001033B60EB6843F0D5
:1032F0000103EB602B6843F001032B60136843F07C
:1033000001031360D8F8003043F04003C8F80030E0
:10331000B368DFF8D08123F0004323F03F0343F08C
:103320000103B36014F01EFFFFF710FCFFF768FC09
:1033300021460EF00BF90A220546114600F0A8FEC0
:1033400014222846642100F097FF604928460EF0B9
:1033500051FAFFF755FC21460CF046FD3222054696
:103360000A2100F095FE32222846C82100F084FF91
:10337000214628460EF0EAF8554907460EF03AFA7B
:10338000FFF73EFC29460CF02FFD6421064600F0B5
:1033900049FF214630460EF0D9F84D494D4E0EF00A
:1033A00029FAFFF72DFC29460CF01EFD962100F0AE
:1033B00039FFFFF725FC29460CF016FDC82100F067
:1033C00031FF2846444901F001FE25460A20FEF758
:1033D000BBFA0A200AF0DCFF0CF0EEF93068FDF7CA
:1033E00071F802460B46384641460EF0B9FAD6ED62
:1033F000007A9FED3A7A77EE877A112DC6ED007A42
:1034000000F09280102D00F092800021012D0846DE
:1034100000F091800A46FFF722FC122D00F08D800B
:103420000F2D00F08D800021022D084600F08C80C9
:103430000A46FFF714FC132D00F088800E2D00F0D3
:1034400088800021032D084600F087800A46FFF798
:1034500006FC142D00F083800D2D00F083800021E8
:10346000042D084600F082800A46FFF7F8FB152D70
:103470007ED00C2D7FD00021052D08467FD00A4636
:10348000FFF7EDFB162D7CD00B2D7DD00021062DF6
:1034900008467DD00A46FFF7E2FB172D7AD00A2DA9
:1034A0007BD00021072D08467BD01DE0000400489A
:1034B0000000045000030450140004500038014080
:1034C00000127A00002C0140BE990108C999010838
:1034D000D09901083C140020112C0008F4FD543C44
:1034E00000300140D79901080A46FFF7B8FB182DB4
:1034F00059D0092D5AD00021082D08465AD00A4625
:103500000134E4B2FFF7ABFB042C7FF45FAF01356D
:10351000EDB2192D4FF000047FF458AF012555E7A7
:10352000202598E42023AAE40021102072E700203F
:10353000294602466FE710226DE70021102077E749
:1035400000201021024674E7102272E700211020AB
:103550007CE700201021024679E7102277E700215E
:10356000102081E70020102102467EE710227CE730
:103570000021102083E700201021024680E710225E
:103580007EE70021102085E700201021024682E717
:10359000102280E700211020A6E70020102102461B
:1035A000A3E71022A1E700211020A8E700201021A6
:1035B0000246A5E71022A3E77047FEE7FEE7FEE715
:1035C000FEE7704770477047704708B5FEF72EFD5D
:1035D0004FF080436FF001021A6108BD70B50E46CE
:1035E00015460C46A31B9D4201DC284670BDAFF377
:1035F000008004F8010BF5E770B50E4615460C4641
:10360000A31B9D4201DC284670BD14F8010BFEF798
:1036100039FDF5E708B50A4B1968024609B90949A9
:1036200019601868694602448A4206D914F000FD00
:103630000C2303604FF0FF3008BD1A6008BD00BFC7
:1036400040140020489A00204FF0FF3070474FF49C
:1036500000534B60002070470120704700207047E6
:103660000F49D1F8883043F47003C1F888300D4B0E
:103670001A68002042F001021A6098601A6822F06D
:10368000A85222F410221A604FF48052DA601A68AD
:1036900022F480221A6098614FF000638B607047BB
:1036A00000ED00E000100240DFF834D0002103E01C
:1036B0000C4B5B58435004310B480C4B42189A4258
:1036C000F6D30B4A02E0002342F8043B094B9A422E
:1036D000F9D3FFF7C5FF14F0B1FCFFF755FBFEE788
:1036E00000000120A01C02080000002010010020A2
:1036F00010010020489A0020FEE780B582B000AF9C
:1037000078607B68002B02D10AF078FC78607B68D7
:10371000002B01D1002301E07B689B6B1846083722
:10372000BD4680BD80B582B000AF78607B68002B5D
:1037300002D10AF063FC78607B68002B01D1002382
:1037400001E07B68DB6B18460837BD4680BD80B55D
:1037500082B000AF78607B68002B02D10AF04EFC8B
:1037600078607B68002B01D1002301E07B681B6C33
:1037700018460837BD4680BD80B582B000AF78607E
:10378000396008223968786814F07CFC00BF08377B
:10379000BD4680BD80B483B000AF78607B68B3F96C
:1037A00004309AB27B68B3F900309BB2D31A9BB253
:1037B00001339BB21BB218460C37BD465DF8047B43
:1037C000704780B483B000AF78607B68B3F906308F
:1037D0009AB27B68B3F902309BB2D31A9BB2013321
:1037E0009BB21BB218460C37BD465DF8047B704790
:1037F00080B500AF134B1B78002B21D10BF02AFEB4
:103800000BF0CCFF0BF006FA0AF010FE0FF0A6FC4E
:1038100003F0F2F802F023FB4FF4B6710A480BF004
:103820008FFB5C2109480BF08BFB0FF0C4FF08F005
:10383000C7FC012008F0D6FB024B01221A7000E001
:1038400000BF80BD44140020B0190020BC19002026
:1038500090B587B000AF7860396000237B617B68EA
:10386000002B40F0CB800AF0C9FB38613B69002B8C
:1038700001D10023C1E23B692C3318460BF080FBD9
:10388000786178690FF0B0FB034683F00103DBB287
:10389000002B08D07B694FF000041A462346A54848
:1038A0000FF0CCFBFEE77B69002B01D10023A4E2E3
:1038B0007B6900221A607B690433442118460BF0AF
:1038C0003FFB7B699C4ADA617B699C4A1A627B698F
:1038D00000229A617B6900221A827B6900225A8247
:1038E00000200AF097FB03469BB2013B9BB21AB241
:1038F0007B699A8200200AF0AEFB03469BB2013B33
:103900009BB21AB27B69DA827B6900229A867B6954
:10391000002283F840207B6900229A877B6900227D
:10392000DA877B6900229A637A6992F841306FF3F3
:10393000000382F841300FF04BFBF860FB68002B6E
:1039400004D0FB681A687B699A6202E07B697C4A52
:103950009A627B690022DA627A6992F830306FF3FA
:10396000000382F830307A6992F830306FF3410307
:1039700082F830307A6992F830306FF3820382F83F
:1039800030307A6992F830306FF3C30382F8303008
:103990007A6992F830306FF3041382F830307A6924
:1039A00092F830306FF3451382F830307B69002293
:1039B00083F832207A6992F830306FF3861382F8F8
:1039C00030307B69FF2283F833207A6992F83030F7
:1039D0006FF3C71382F830307A6992F831306FF3A1
:1039E000830382F831307A6992F831306FF306132D
:1039F00082F831307B6900225A62FCE078680FF06F
:103A0000F3FA034683F00103DBB2002B08D07B6896
:103A10004FF000041A4623464A480FF00FFBFEE71A
:103A20007B68043318460BF0ABFA786178690FF0C5
:103A3000DBFA034683F00103DBB2002B08D07B697D
:103A40004FF000041A4623463A480FF0F7FAFEE713
:103A50007B69002B01D10023CFE17B697A681A6072
:103A60007B690433442118460BF06AFA7B69324AB9
:103A7000DA617B69314A1A627B6900229A617A694C
:103A800092F831306FF3830382F831307B68B3F9F9
:103A900012207B695A827B68B3F912309BB24233A1
:103AA0009BB21AB27B69DA82786901F024FF03467F
:103AB000012B0ED17B68B3F914207B699A827B6855
:103AC000B3F914309BB2643B9BB21AB27B691A8281
:103AD0000DE07B68B3F910207B691A827B68B3F92B
:103AE00010309BB264339BB21AB27B699A827B69B5
:103AF00000229A867B69002283F840207B6900229D
:103B00009A877B690022DA877B6900229A637A6947
:103B100092F841306FF3000382F841300FF058FA09
:103B2000B860BB68002B0FD0BB689A687B699A624B
:103B30000DE000BFB88C0108715C0008555B0008FF
:103B400058140020C88C01087B69AE4A9A627B69D0
:103B50000022DA627A6992F8303043F0010382F889
:103B600030307A6992F830306FF3410382F83030A8
:103B70007A6992F8313043F0030382F831307A6980
:103B800092F830306FF3820382F830307A6992F81D
:103B900030306FF3C30382F830307A6992F83030F6
:103BA0006FF3041382F830307A6992F830306FF393
:103BB000451382F830307B69002283F832207B691C
:103BC000FF2283F833207A6992F830306FF386133E
:103BD00082F830307A6992F830306FF3C71382F888
:103BE00030307A6992F831306FF3061382F8313051
:103BF0007B6900225A623B68002B00F0F180386834
:103C00000FF0F2F9034683F00103DBB2002B08D07A
:103C10003B684FF000041A4623467B480FF00EFA2B
:103C2000FEE77B6903F110023B681033194610462A
:103C3000FFF7A2FD3B68B3F934207B699A863B68A5
:103C400093F840207B6983F840203B68B3F93C201F
:103C50007B699A873B68B3F93E207B69DA873B68CA
:103C60009A6B7B699A633B6893F84130C3F3000316
:103C7000D9B27A6992F8413061F3000382F8413099
:103C80003B689A697B699A613B6893F83030C3F36B
:103C90000003D9B27A6992F8303061F3000382F8F8
:103CA00030303B6893F83030C3F34003D9B27A69BF
:103CB00092F8303061F3410382F830303B6893F87A
:103CC0003130C3F30103D9B27A6992F8313061F32C
:103CD000010382F831303B6893F83030C3F380033E
:103CE000D9B27A6992F8303061F3820382F83030C9
:103CF0003B6893F83030C3F3C003D9B27A6992F8C5
:103D0000303061F3C30382F830303B6893F83030D1
:103D1000C3F30013D9B27A6992F8303061F3041317
:103D200082F830303B6893F83030C3F34013D9B297
:103D30007A6992F8303061F3451382F830303B688D
:103D400093F83030C3F3C013D9B27A6992F83030A7
:103D500061F3C71382F830303B6893F83030C3F317
:103D60008013D9B27A6992F8303061F3861382F801
:103D700030303B6893F832207B6983F832203B680F
:103D800093F833207B6983F833203B689A6A7B6918
:103D90009A623B68DB6A002B05D03B68DB6A796975
:103DA00018460FF0E5F9386801F0E8FA0346002BF1
:103DB00011D07B68002B0ED0386801F053FB03460E
:103DC0001C46386801F082FB03461A462146786992
:103DD00000F05EF904E000220021786900F058F953
:103DE0007B68002B08D07B68DB697A6901217868E1
:103DF0009847786900F0C0F87B6918461C37BD46C3
:103E000090BD00BF98150020C88C010890B58DB0FA
:103E100000AF7860396078680FF0E6F8034683F009
:103E20000103DBB2002B08D07B684FF000041A4678
:103E3000234650480FF002F9FEE7786801F084FC51
:103E40000346002B40F08E80786801F021FA7862FA
:103E5000786A01F045FA3862386AFFF74EFC02468C
:103E60007B6A9A420DD0386AFFF75CFC02467B6A97
:103E70009A4206D0386AFFF76AFC02467B6A9A4289
:103E800075D17B689B8EFB837B6803F1100207F181
:103E9000140311461846FFF76FFCB7F914309AB2B5
:103EA000FB8BD31A9BB21BB2BB82B7F916309AB206
:103EB000FB8BD31A9BB21BB2FB82B7F918309AB2B4
:103EC000FB8B13449BB21BB23B83B7F91A309AB2F7
:103ED000FB8B13449BB21BB27B8307F1140207F1E7
:103EE0000C03396818460AF001FD034687F82F30A5
:103EF00097F82F3083F00103DBB2002B34D17868C0
:103F000001F03CFAB8621DE0BB6A03F1100207F150
:103F10000C0107F10C0318460AF0E8FC034687F889
:103F20002F3097F82F3083F00103DBB2002B0DD137
:103F3000B86A01F009FC0346002B17D1B86A01F0FA
:103F40001DFAB862BB6A002BDED100E000BF97F813
:103F50002F30002B0BD007F10C031946386A01F003
:103F600085FF04E000BF02E000BF00E000BF34377F
:103F7000BD4690BDC88C010890B587B000AF786091
:103F800078680FF031F8034683F00103DBB2002BB1
:103F900008D07B684FF000041A4623461C480FF0F7
:103FA0004DF8FEE77B689B8EFB827B6803F1100275
:103FB00007F10C0311461846FFF7DEFBB7F90C308A
:103FC0009AB2FB8AD31A9BB21BB2BB81B7F90E30EF
:103FD0009AB2FB8AD31A9BB21BB2FB81B7F910309D
:103FE0009AB2FB8A13449BB21BB23B82B7F91230E0
:103FF0009AB2FB8A13449BB21BB27B8207F10C037B
:1040000019467868FFF702FF00BF1C37BD4690BD18
:10401000C88C010890B585B000AF786078680EF064
:10402000E3FF034683F00103DBB2002B08D07B687B
:104030004FF000041A46234614480EF0FFFFFEE737
:10404000786801F09BF9F860FB68043318460BF0C0
:10405000F9F802467B689A4214D0F868FFF78CFFA3
:10406000FB68181DFB68191D01237A680BF095F891
:10407000FB68DB697A680121F8689847F868FFF700
:104080007BFF00E000BF1437BD4690BDC88C01081F
:1040900090B587B000AF78600B467B8013463B80BD
:1040A00078680EF0A1FF034683F00103DBB2002B1A
:1040B00008D07B684FF000041A46234643480EF0B0
:1040C000BDFFFEE77B681B687B617B69B3F910303D
:1040D0009AB27B8813449BB27B807B69B3F9123020
:1040E0009AB23B8813449BB23B807A887B68B3F9D1
:1040F00010309BB2D31A9BB21BB23B823A887B68CA
:10410000B3F912309BB2D31A9BB21BB27B82B7F9C0
:104110001030002B03D1B7F91230002B51D0786842
:10412000FFF72AFF07F108031946786801F076F9CE
:104130007B68B3F910309AB2B7F910309BB21344D0
:104140009BB21AB27B681A827B68B3F912309AB2BA
:10415000B7F912309BB213449BB21AB27B685A82F1
:104160007B68B3F914309AB2B7F910309BB213449C
:104170009BB21AB27B689A827B68B3F916309AB206
:10418000B7F912309BB213449BB21AB27B68DA8241
:10419000B7F91030B7F912201946786801F0AAFD76
:1041A0007B68DB6907F108020221786898477B6920
:1041B000DB697A680121786998477868FFF7DCFE47
:1041C00000E000BF1C37BD4690BD00BFC88C010891
:1041D00090B583B000AF78600B467B8078680EF0B6
:1041E00003FF034683F00103DBB2002B08D07B689A
:1041F0004FF000041A46234609480EF01FFFFEE761
:10420000786801F063F903461A46B7F90230194697
:104210007868FFF73DFF00BF0C37BD4690BD00BF7B
:10422000C88C010890B583B000AF78600B467B80E6
:1042300078680EF0D9FE034683F00103DBB2002B51
:1042400008D07B684FF000041A46234609480EF058
:10425000F5FEFEE7786801F005F903461946B7F95F
:1042600002301A467868FFF713FF00BF0C37BD46CF
:1042700090BD00BFC88C010890B587B000AF7860D2
:104280000B467B8013463B8078680EF0ADFE0346FC
:1042900083F00103DBB2002B08D07B684FF00004F1
:1042A0001A46234643480EF0C9FEFEE7786801F03F
:1042B00041F903461A46B7F90230934208D17868AB
:1042C00001F05AF903461A46B7F9003093426DD00F
:1042D0007868FFF751FE07F108031946786801F086
:1042E0009DF87B68B3F912309AB23B8813449BB2B5
:1042F000013B9BB21AB27B68DA82786801F0FBFA64
:104300000346012B0CD17B68B3F914309AB27B8839
:10431000D31A9BB201339BB21AB27B681A820BE0AC
:104320007B68B3F910309AB27B8813449BB2013B8F
:104330009BB21AB27B689A827B68DB6907F108023C
:10434000022178689847786801F018F838613B696D
:10435000002B05D03B69DB697A68012138699847F1
:104360007B68043318460AF06DFF78610CE07B69C6
:10437000DB6900220321786998477B6804337969F7
:1043800018460AF085FF78617B69002BEFD17868C9
:10439000FFF7F2FD7B6893F8413003F00103DBB2D5
:1043A000002B04D0786800F0F1FC00E000BF1C375F
:1043B000BD4690BDC88C010890B583B000AF786051
:1043C0000B467B8078680EF00FFE034683F00103F6
:1043D000DBB2002B08D07B684FF000041A4623465E
:1043E00009480EF02BFEFEE7786801F0A3F80346BB
:1043F0001946B7F902301A467868FFF73DFF00BF4B
:104400000C37BD4690BD00BFC88C010890B589B07F
:1044100000AFF860B96011461A460B46FB711346AF
:10442000BB80F8680EF0E0FD034683F00103DBB2C9
:10443000002B08D0FB684FF000041A462346B14811
:104440000EF0FCFDFEE7F86801F00CF80346FB8374
:10445000F86801F03BF80346BB83BB68002B03D12F
:10446000F86800F08BFFB860B8680EF0BDFD034639
:1044700083F00103DBB2002B08D0BB684FF00004CF
:104480001A4623469F480EF0D9FDFEE7FB79142B10
:1044900000F2FB8101A252F823F000BFF1440008B2
:1044A000474500085145000881450008A14500081E
:1044B000C1450008074600083D4600086D46000853
:1044C000B3460008C94600080947000835470008F8
:1044D000454700087B470008A1470008B747000888
:1044E000F34700081F4800082F48000865480008E7
:1044F000B86801F01FF80346DA0F13445B101BB2D3
:104500009CB2F86801F016F80346DA0F13445B100A
:104510001BB29BB2E31A9BB2FB83B86801F02CF884
:104520000346DA0F13445B101BB29CB2F86801F02B
:1045300023F80346DA0F13445B101BB29BB2E31A55
:104540009BB2BB83A1E10023FB830023BB839CE1DF
:10455000B86800F0EFFF0346DA0F13445B101BB29C
:104560009CB2F86800F0E6FF0346DA0F13445B10D4
:104570001BB29BB2E31A9BB2FB830023BB8384E193
:10458000B86800F0D7FF03469CB2F86800F0D2FF8D
:1045900003469BB2E31A9BB2FB830023BB8374E107
:1045A0000023FB83B86800F0E7FF03469CB2F8687D
:1045B00000F0E2FF03469BB2E31A9BB2BB8364E1C7
:1045C000B86800F0B7FF0346DA0F13445B101BB264
:1045D0009CB2F86800F0AEFF0346DA0F13445B109C
:1045E0001BB29BB2E31A9BB2FB83B86800F0C4FF16
:1045F00003469CB2F86800F0BFFF03469BB2E31A83
:104600009BB2BB8341E1B86800F094FF03469CB2C3
:10461000F86800F08FFF03469BB2E31A9BB2FB835E
:10462000B86800F0A9FF03469CB2F86800F0A4FF48
:1046300003469BB2E31A9BB2BB8326E10023FB83B4
:10464000B86800F099FF0346DA0F13445B101BB201
:104650009CB2F86800F090FF0346DA0F13445B1039
:104660001BB29BB2E31A9BB2BB830EE1B86800F0A9
:1046700061FF03469CB2F86800F05CFF03469BB202
:10468000E31A9BB2FB83B86800F076FF0346DA0FAB
:1046900013445B101BB29CB2F86800F06DFF034638
:1046A000DA0F13445B101BB29BB2E31A9BB2BB83BD
:1046B000EBE00023FB83F86800F05EFF03469BB24B
:1046C0005B429BB2BB83E0E0B86800F033FF034677
:1046D000DA0F13445B101BB29CB2F86800F02AFF9B
:1046E0000346DA0F13445B101BB29BB2E31A9BB272
:1046F000FB83F86800F040FF03469BB25B429BB22D
:10470000BB83C2E0C88C0108B86800F013FF034601
:104710009CB2F86800F00EFF03469BB2E31A9BB20E
:10472000FB83F86800F028FF03469BB25B429BB214
:10473000BB83AAE00023FB83B86800F01DFF03469B
:10474000BB83A2E0B86800F0F5FE0346DA0F13441D
:104750005B101BB29CB2F86800F0ECFE0346DA0F67
:1047600013445B101BB29BB2E31A9BB2FB83B86885
:1047700000F002FF0346BB8387E0B86800F0DAFE72
:1047800003469CB2F86800F0D5FE03469BB2E31ADC
:104790009BB2FB83B86800F0EFFE0346BB8374E076
:1047A000F86800F0C7FE03469BB25B429BB2FB83F6
:1047B0000023BB8369E0F86800F0BCFE03469BB2AF
:1047C0005B429BB2FB83B86800F0D6FE0346DA0F6B
:1047D00013445B101BB29CB2F86800F0CDFE034698
:1047E000DA0F13445B101BB29BB2E31A9BB2BB837C
:1047F0004BE0F86800F09EFE03469BB25B429BB222
:10480000FB83B86800F0B8FE03469CB2F86800F07D
:10481000B3FE03469BB2E31A9BB2BB8335E0B86894
:1048200000F088FE0346FB830023BB832DE0B868BD
:1048300000F080FE0346FB83B86800F09DFE03464F
:10484000DA0F13445B101BB29CB2F86800F094FEC0
:104850000346DA0F13445B101BB29BB2E31A9BB200
:10486000BB8312E0B86800F065FE0346FB83B868BE
:1048700000F082FE03469CB2F86800F07DFE03461D
:104880009BB2E31A9BB2BB8300BFF86800F076FDD1
:10489000B861BB681B8AFB82BB685B8ABB82BB6951
:1048A0001B8A7B82BB695B8A3B82BA88FB8A134482
:1048B0009AB2FB8B13449BB2FB833A8EBB8A1344A0
:1048C0009AB2BB8B13449BB2BB83FA8B7B8AD31AFD
:1048D0009BB2FB83BA8B3B8AD31A9BB2BB83B7F9DB
:1048E0001C20B7F91E301946F868FFF7D1FBFB68AA
:1048F000FA7983F84020FB68BA889A87FB683A8E79
:10490000DA87FB68BA689A63FA6892F841306FF305
:10491000410382F8413000BF2437BD4690BD00BF3F
:1049200090B58BB000AFF860B96011461A460B46DF
:10493000FB711346BB80F8680EF056FB034683F00C
:104940000103DBB2002B08D0FB684FF000041A46CD
:104950002346A2480EF072FBFEE7F86800F082FDE5
:104960000346FB84F86800F0B1FD0346BB84F86899
:1049700000F0E0FD0346DA0F13445B107B84F86817
:1049800000F0FAFD0346DA0F13445B103B84BB686A
:10499000002B03D1F86800F0F1FCB860B8680EF0A5
:1049A00023FB034683F00103DBB2002B08D0BB6876
:1049B0004FF000041A46234688480EF03FFBFEE7FE
:1049C000FB79142B00F2978101A252F823F000BF6B
:1049D000254A00085B4A00086D4A0008914A000811
:1049E000AD4A0008C94A0008F74A00081D4B0008F4
:1049F000414B00086F4B0008814B0008A54B000895
:104A0000C14B0008E14B00080F4C0008354C000872
:104A1000474C00086B4C0008874C0008A34C00086A
:104A2000D14C0008B86800F085FD0346DA0F134446
:104A30005B101BB29AB27B8CD31A9BB2FB84B86812
:104A400000F09AFD0346DA0F13445B101BB29AB2D2
:104A50003B8CD31A9BB2BB844DE17B8C5B429BB2F7
:104A6000FB843B8C5B429BB2BB8444E1B86800F0A2
:104A700061FD0346DA0F13445B101BB29AB27B8CC4
:104A8000D31A9BB2FB843B8C5B429BB2BB8432E16A
:104A9000B86800F04FFD03469AB27B8CD31A9BB2E4
:104AA000FB843B8C5B429BB2BB8424E17B8C5B42EE
:104AB0009BB2FB84B86800F05FFD03469AB23B8C62
:104AC000D31A9BB2BB8416E1B86800F033FD0346ED
:104AD000DA0F13445B101BB29AB27B8CD31A9BB2D1
:104AE000FB84B86800F048FD03469AB23B8CD31AA9
:104AF0009BB2BB84FFE0B86800F01CFD03469AB28D
:104B00007B8CD31A9BB2FB84B86800F035FD03465A
:104B10009AB23B8CD31A9BB2BB84ECE07B8C5B4299
:104B20009BB2FB84B86800F027FD0346DA0F1344FC
:104B30005B101BB29AB23B8CD31A9BB2BB84DAE0F7
:104B4000B86800F0F7FC03469AB27B8CD31A9BB28C
:104B5000FB84B86800F010FD0346DA0F13445B10C5
:104B60001BB29AB23B8CD31A9BB2BB84C3E07B8C42
:104B70005B429BB2FB843B8C5B429BB2BB84BAE042
:104B8000B86800F0D7FC0346DA0F13445B101BB281
:104B90009AB27B8CD31A9BB2FB843B8C5B429BB258
:104BA000BB84A8E0B86800F0C5FC03469AB27B8CD1
:104BB000D31A9BB2FB843B8C5B429BB2BB849AE0D2
:104BC0007B8C5B429BB2FB84B86800F0D5FC03464B
:104BD0009AB23B8CD31A9BB2BB848CE0C88C010880
:104BE000B86800F0A7FC0346DA0F13445B101BB251
:104BF0009AB27B8CD31A9BB2FB84B86800F0BCFCE1
:104C000003469AB23B8CD31A9BB2BB8473E0B8685C
:104C100000F090FC03469AB27B8CD31A9BB2FB84C3
:104C2000B86800F0A9FC03469AB23B8CD31A9BB239
:104C3000BB8460E07B8C5B429BB2FB843B8C5B4221
:104C40009BB2BB8457E07B8C5B429BB2FB84B86811
:104C500000F092FC0346DA0F13445B101BB29AB2C9
:104C60003B8CD31A9BB2BB8445E07B8C5B429BB2EE
:104C7000FB84B86800F080FC03469AB23B8CD31AE0
:104C80009BB2BB8437E0B86800F054FC03469AB28C
:104C90007B8CD31A9BB2FB843B8C5B429BB2BB8464
:104CA00029E0B86800F046FC03469AB27B8CD31A20
:104CB0009BB2FB84B86800F05FFC0346DA0F134434
:104CC0005B101BB29AB23B8CD31A9BB2BB8412E02E
:104CD000B86800F02FFC03469AB27B8CD31A9BB2C3
:104CE000FB84B86800F048FC03469AB23B8CD31AA8
:104CF0009BB2BB8400BFF86800F040FBF861BB6862
:104D00001B8A7B83BB685B8A3B83FB691B8AFB82B4
:104D1000FB695B8ABB82BA887B8B13449AB2FB8C9B
:104D200013449BB2FB843A8F3B8B13449AB2BB8CE7
:104D300013449BB2BB84FA8CFB8AD31A9BB2FB84CC
:104D4000BA8CBB8AD31A9BB2BB84B7F92420B7F9BB
:104D500026301946F868FFF79BF9FB68FA7983F863
:104D60004020FB68BA889A87FB683A8FDA87FB682D
:104D7000BA689A63FA6892F8413043F0020382F805
:104D8000413000BF2C37BD4690BD00BF90B585B007
:104D900002AF786078680EF027F9034683F00103CC
:104DA000DBB2002B08D07B684FF000041A46234684
:104DB00018480EF043F9FEE77B6893F8413003F0A2
:104DC0000203DBB2002B10D07B68996B7B6893F8F1
:104DD00040207B68B3F93C007B68B3F93E30009318
:104DE00003467868FFF79CFD0FE07B68996B7B6852
:104DF00093F840207B68B3F93C007B68B3F93E3000
:104E0000009303467868FFF701FB00BF0C37BD46EF
:104E100090BD00BFC88C010890B583B000AF78602A
:104E2000396078680EF0E0F8034683F00103DBB2E6
:104E3000002B08D07B684FF000041A462346114827
:104E40000EF0FCF8FEE738680EF0DEF8034683F05B
:104E50000103DBB2002B08D03B684FF000041A4678
:104E6000234609480EF0EAF8FEE77B683A689A6242
:104E7000786800F08CFF786800F008F800BF0C3705
:104E8000BD4690BDC88C0108D88C010890B583B090
:104E900000AF786078680EF0A7F8034683F001034E
:104EA000DBB2002B08D07B684FF000041A46234683
:104EB00009480EF0C3F8FEE77868FFF75DF87B68F5
:104EC000DB6900220421786898477868FFF754F876
:104ED00000BF0C37BD4690BDC88C010890B583B0AB
:104EE00000AF78600B46FB7078680EF07DF80346E3
:104EF00083F00103DBB2002B08D07B684FF0000485
:104F00001A46234607480EF099F8FEE7F9787A68C2
:104F100092F8303061F3000382F8303000BF0C3774
:104F2000BD4690BDC88C010890B583B000AF7860D5
:104F30000B46FB7078680EF057F8034683F00103C8
:104F4000DBB2002B08D07B684FF000041A462346E2
:104F500008480EF073F8FEE77B6893F83220FB7880
:104F60001343DAB27B6883F8322000BF0C37BD46AA
:104F700090BD00BFC88C010890B583B000AF7860C9
:104F80000B46FB7078680EF02FF8034683F00103A0
:104F9000DBB2002B08D07B684FF000041A46234692
:104FA00009480EF04BF8FEE7FB78DB43FB707B68AB
:104FB00093F83220FB781340DAB27B6883F8322012
:104FC00000BF0C37BD4690BDC88C010890B583B0BA
:104FD00000AF7860396078680EF006F8034683F019
:104FE0000103DBB2002B08D07B684FF000041A46A7
:104FF000234605480EF022F8FEE77B683A689A617E
:1050000000BF0C37BD4690BDC88C010890B587B075
:1050100000AFF8600B467A60FB72FB68002B01D191
:1050200001231BE0F8680DF0DFFF034683F0010366
:10503000DBB2002B08D0FB684FF000041A46234671
:1050400008480DF0FBFFFEE7FB689869FA7A7B6879
:10505000F96800F009F80346FB75FB7D18461C371C
:10506000BD4690BDC88C010890B58BB000AFF8600C
:10507000B9603B601346FB71BB68002B11D0B86868
:105080000DF0B2FF034683F00103DBB2002B08D022
:10509000BB684FF000041A46234631480DF0CEFF9E
:1050A000FEE7BB683B6100233B750023BB612D4BD2
:1050B0001B68002B02D02B4B1B68BB61294A07F1F0
:1050C00010031360284B1B687B62274A3B68136000
:1050D0000EF01AFC38623B6A002B09D03B6A9B68D1
:1050E000002B05D03B6A9B683A6AF97910469847CD
:1050F000FB68002B04D0FA79FB681146B868984722
:10510000194A7B6A1360174B1B689B68154A13602A
:105110003B7D002B01D000231DE0BB68002B19D084
:10512000BB6893F8303023F07F03DBB2002B11D043
:10513000BB681B68002B0DD0BB681B68F9793A6807
:105140001846FFF763FF0346FB77FB7F012B01D077
:10515000002300E0012318462C37BD4690BD00BF58
:10516000C88C0108481400204C14002090B583B06E
:1051700000AF7860396078680DF036FF034683F041
:105180000103DBB2002B08D07B684FF000041A4605
:10519000234605480DF052FFFEE77B683A68DA6166
:1051A00000BF0C37BD4690BDC88C010890B583B0D8
:1051B00000AF7860396078680DF016FF034683F021
:1051C0000103DBB2002B08D07B684FF000041A46C5
:1051D000234605480DF032FFFEE77B683A681A6205
:1051E00000BF0C37BD4690BDC88C010890B583B098
:1051F00000AF78600B467B8078680DF0F5FE0346C3
:1052000083F00103DBB2002B08D07B684FF0000471
:105210001A46234609480DF011FFFEE77B685B6ADA
:105220007A88114618460AF0ABF902467B685A6242
:105230007B685B6A18460C37BD4690BDC88C010878
:1052400090B583B000AF786078680DF0CDFE03466E
:1052500083F00103DBB2002B08D07B684FF0000421
:105260001A46234609480DF0E9FEFEE77B68002256
:105270009A867B68DB6900220621786898477868FF
:10528000FEF77AFE00BF0C37BD4690BDC88C010802
:1052900090B585B000AF786078680DF0A5FE034644
:1052A00083F00103DBB2002B08D07B684FF00004D1
:1052B0001A46234609480DF0C1FEFEE77B68FB60F5
:1052C000FB68BB60B86800F059F8F860FB68002B19
:1052D000F6D1BB6818461437BD4690BDC88C01088E
:1052E00090B587B000AF786078680DF07DFE03461A
:1052F00083F00103DBB2002B08D07B684FF0000481
:105300001A4623461B480DF099FEFEE77B681B6892
:10531000002B02D17B687B6103E07868FFF7B8FF60
:105320007861154809F08EFF38611BE03B692C332A
:10533000184609F087FFF8600CE0FA687B699A422A
:1053400001D13B6912E03B692C33F968184609F03A
:105350009FFFF860FB68002BEFD13969064809F020
:1053600097FF38613B69002BE0D1002318461C37BA
:10537000BD4690BDC88C0108B019002090B583B01F
:1053800000AF786078680DF02FFE034683F00103CC
:10539000DBB2002B08D07B684FF000041A4623468E
:1053A00004480DF04BFEFEE77B681B6818460C377F
:1053B000BD4690BDC88C010890B585B000AF78603F
:1053C000396078680DF010FE034683F00103DBB20C
:1053D000002B08D07B684FF000041A4623460E4885
:1053E0000DF02CFEFEE70023FB603B68002B06D18E
:1053F0007B680433184609F025FFF86006E07B68F7
:1054000004333968184609F043FFF860FB68184612
:105410001437BD4690BD00BFC88C010890B583B05D
:1054200000AF7860396078680DF0DEFD034683F0E8
:105430000103DBB2002B08D07B684FF000041A4652
:10544000234607480DF0FAFDFEE77B681033194646
:105450003868FEF791F900BF0C37BD4690BD00BF1C
:10546000C88C010890B585B000AF786078680DF001
:10547000BBFD034683F00103DBB2002B08D07B6841
:105480004FF000041A4623460F480DF0D7FDFEE703
:105490007868FFF773FFB860BB68002B0BD07B68A0
:1054A000B3F910309AB2BB68B3F910309BB2D31A7B
:1054B0009BB2FB8102E07B681B8AFB81B7F90E304F
:1054C00018461437BD4690BDC88C010890B585B00C
:1054D00000AF786078680DF087FD034683F0010324
:1054E000DBB2002B08D07B684FF000041A4623463D
:1054F0000F480DF0A3FDFEE77868FFF73FFFB860A7
:10550000BB68002B0BD07B68B3F912309AB2BB6832
:10551000B3F912309BB2D31A9BB2FB8102E07B68D5
:105520005B8AFB81B7F90E3018461437BD4690BD33
:10553000C88C010890B583B000AF786078680DF032
:1055400053FD034683F00103DBB2002B08D07B68D8
:105550004FF000041A46234606480DF06FFDFEE7A3
:105560007B6810331846FEF715F9034618460C37CA
:10557000BD4690BDC88C010890B583B000AF78607F
:1055800078680DF031FD034683F00103DBB2002B98
:1055900008D07B684FF000041A46234606480DF0F9
:1055A0004DFDFEE77B6810331846FEF70AF9034607
:1055B00018460C37BD4690BDC88C010890B585B023
:1055C00000AF786078680DF00FFD034683F00103AB
:1055D000DBB2002B08D07B684FF000041A4623464C
:1055E0000E480DF02BFDFEE7786800F041F8F860FA
:1055F0007868FFF79FFF03469AB2FB68B3F91A3049
:105600009BB2D31A9AB2FB68B3F91C309BB2D31A7F
:105610009BB21BB218461437BD4690BDC88C01081A
:1056200090B583B000AF786078680DF0DDFC03467C
:1056300083F00103DBB2002B08D07B684FF000043D
:105640001A46234609480DF0F9FCFEE77B6893F8FB
:10565000413003F00103DBB2002B14BF0123002310
:10566000DBB218460C37BD4690BD00BFC88C0108A0
:1056700090B587B000AF786078680DF0B5FC034650
:1056800083F00103DBB2002B08D07B684FF00004ED
:105690001A4623462A480DF0D1FCFEE77B689B6A38
:1056A0007B617B69002B2CD17B681B683B6125E00B
:1056B0003B699B6A002B1ED03B699B6A1B7803F0F9
:1056C0000103DBB2002B16D1386900F0D7F9F8607E
:1056D000F8680DF001FF02463B699A4207D13B6929
:1056E0009B6A1946F8680DF0C7FE786109E03B69CE
:1056F0009B6A7B6105E03B691B683B613B69002B52
:10570000D6D17B68DB6A002B0FD07B68DB6A18463A
:105710000DF0E2FE02467B689A4206D17B68DB6AA6
:10572000796918460DF0A8FE78617B69002B01D1DC
:10573000044B7B617B6918461C37BD4690BD00BF9A
:10574000C88C01085815002090B583B000AF786070
:1057500078680DF049FC034683F00103DBB2002BAF
:1057600008D07B684FF000041A46234609480DF024
:1057700065FCFEE77B6893F8303003F01003DBB282
:10578000002B14BF01230023DBB218460C37BD46A3
:1057900090BD00BFC88C010890B583B000AF7860A1
:1057A00078680DF021FC034683F00103DBB2002B87
:1057B00008D07B684FF000041A46234609480DF0D4
:1057C0003DFCFEE77B6893F8303003F00103DBB269
:1057D000002B14BF01230023DBB218460C37BD4653
:1057E00090BD00BFC88C010890B583B000AF786051
:1057F00078680DF0F9FB034683F00103DBB2002B60
:1058000008D07B684FF000041A46234609480DF083
:1058100015FCFEE77B6893F8303003F00203DBB23F
:10582000002B14BF01230023DBB218460C37BD4602
:1058300090BD00BFC88C010890B583B000AF786000
:1058400078680DF0D1FB034683F00103DBB2002B37
:1058500008D07B684FF000041A46234606480DF036
:10586000EDFBFEE77B6893F83130C3F30103DBB255
:1058700018460C37BD4690BDC88C010890B583B062
:1058800000AF786078680DF0AFFB034683F001034A
:10589000DBB2002B08D07B684FF000041A46234689
:1058A00009480DF0CBFBFEE77B6893F8303003F03E
:1058B0000403DBB2002B14BF01230023DBB2184624
:1058C0000C37BD4690BD00BFC88C010880B483B0C2
:1058D00000AF78607B6893F8303003F00803DBB2E8
:1058E000002B14BF01230023DBB218460C37BD4642
:1058F0005DF8047B704780B483B000AF786000230C
:1059000018460C37BD465DF8047B704790B585B0EE
:1059100000AF786078680DF067FB034683F0010301
:10592000DBB2002B08D07B684FF000041A462346F8
:105930000F480DF083FBFEE77B68FB600FE0FB6820
:1059400093F8303003F04003DBB2002B03D0FB6848
:1059500093F8333007E0F868FFF710FDF860FB6854
:10596000002BECD1FF2318461437BD4690BD00BF75
:10597000C88C010890B583B000AF78600B46FB700F
:1059800078680DF031FB034683F00103DBB2002B96
:1059900008D07B684FF000041A46234609480DF0F2
:1059A0004DFBFEE77B6893F83220FB781340DBB2B7
:1059B000002B14BF01230023DBB218460C37BD4671
:1059C00090BD00BFC88C010890B583B000AF78606F
:1059D00078680DF009FB034683F00103DBB2002B6E
:1059E00008D07B684FF000041A46234604480DF0A7
:1059F00025FBFEE77B68DB6918460C37BD4690BD8A
:105A0000C88C010890B583B000AF786078680DF05D
:105A1000EBFA034683F00103DBB2002B08D07B686E
:105A20004FF000041A46234604480DF007FBFEE73A
:105A30007B681B6A18460C37BD4690BDC88C0108B0
:105A400090B583B000AF786078680DF0CDFA03466A
:105A500083F00103DBB2002B08D07B684FF0000419
:105A60001A46234604480DF0E9FAFEE77B685B6AB4
:105A700018460C37BD4690BDC88C010890B583B060
:105A800000AF786078680DF0AFFA034683F0010349
:105A9000DBB2002B08D07B684FF000041A46234687
:105AA00004480DF0CBFAFEE77B68DB6A18460C373A
:105AB000BD4690BDC88C010890B583B000AF78603A
:105AC00078680DF091FA034683F00103DBB2002BF6
:105AD00008D07B684FF000041A4623460B480DF0AF
