S015000043756265436F6D70617261746F722E73313948
S3150800000000000120014900083912000847120008BB
S315080000104D1200085312000859120008000000008B
S315080000200000000000000000000000005F12000849
S315080000306D120008000000007B12000889120008F3
S31508000040514900085149000851490008514900081A
S31508000050514900085149000851490008514900080A
S3150800006051490008514900085149000851490008FA
S3150800007051490008514900085149000851490008EA
S3150800008051490008514900085149000851490008DA
S3150800009051490008514900085149000851490008CA
S315080000A051490008514900085149000851490008BA
S315080000B051490008000000000000000051490008EE
S315080000C0514900085149000851490008514900089A
S315080000D0514900085149000851490008514900088A
S315080000E051490008514900080000000000000000BE
S315080000F000000000000000000000000000000000F2
S31508000100000000005149000800000000514900089D
S31508000110000000000000000051490008514900088D
S315080001205149000851490008514900085149000839
S31508000130514900080000000000000000000000000F
S3150800014051490008514900085149000800000000BB
S315080001505149000851490008514900085149000809
S31508000160514900085149000851490008000000009B
S31508000170514900085149000800000000000000002D
S31508000180514900085149000851490008FFFFFFFF7F
S31508000190FFFFFFFFFFFFFFFFFFFFFFFFFFFFFFFF61
S315080001A0FFFFFFFFFFFFFFFFFFFFFFFFFFFFFFFF51
S315080001B0FFFFFFFFFFFFFFFFFFFFFFFFFFFFFFFF41
S315080001C0FFFFFFFFFFFFFFFFFFFFFFFFFFFFFFFF31
S315080001D0FFFFFFFFFFFFFFFFFFFFFFFFFFFFFFFF21
S315080001E0FFFFFFFFFFFFFFFFFFFFFFFFFFFFFFFF11
S315080001F0FFFFFFFFFFFFFFFFFFFFFFFFFFFFFFFF01
S31508000200000000000000000000000000A55AA55AE2
S31508000210314C48530100010078563412445334785F
S31508000220785F436F6D6269000000000031332E303D
S31508000230382E3230313800000000000031313A30B3
S3150800024030000000000000000000000028432932AA
S315080002503031362062792049422D482E4C696E6B22
S315080002600000000000000000000000000000000080
S3150800027000000000000000000000000010B5054C5A
S31508000280237833B9044B13B10448AFF30080012334
S31508000290237010BDF00100200000000008AB000824
S315080002A00C4B43B10C480D4910B5AFF300800C4810
S315080002B0036823B910BD0A48036833B97047094B68
S315080002C0002BF7D0BDE810401847064B002BF5D099
S315080002D0184700BF0000000008AB0008F401002022
S315080002E0EC01002000000000034613F8012B002A49
S315080002F0FBD1181A01387047FFFFFFFFFFFFFFFF0A
S3150800030001F0FF01102A2BDB10F0070F08D010F8B8
S31508000310013B013A8B422DD010F0070F42B3F6D1BC
S31508000320F0B441EA012141EA014122F007047FF0D5
S3150800033000070023F0E80256083C85EA010586EA2C
S31508000340010685FA47F5A3FA87F586FA47F6A5FA68
S3150800035087F68EB9EED1F0BC01F0FF0102F0070274
S3150800036032B110F8013B013A83EA010313B1F8D11F
S315080003700020704701387047002D06BF3546033800
S31508000380073815F0010F07D1013015F4807F02BF39
S31508000390013015F4C03F0130F0BC0138704700BF8A
S315080003A081F0004102E000BF83F0004330B54FEA18
S315080003B041044FEA430594EA050F08BF90EA020F85
S315080003C01FBF54EA000C55EA020C7FEA645C7FEA18
S315080003D0655C00F0E2804FEA5454D4EB5555B8BF3B
S315080003E06D420CDD2C4480EA020281EA030382EAAC
S315080003F0000083EA010180EA020281EA0303362D3E
S3150800040088BF30BD11F0004F4FEA01314FF4801C10
S315080004104CEA113102D0404261EB410113F0004F22
S315080004204FEA03334CEA133302D0524263EB4303D9
S3150800043094EA050F00F0A780A4F10104D5F1200E77
S315080004400DDB02FA0EFC22FA05F2801841F10001D2
S3150800045003FA0EF2801843FA05F359410EE0A5F1A6
S3150800046020050EF1200E012A03FA0EFC28BF4CF0D7
S31508000470020C43FA05F3C01851EBE37101F000458D
S3150800048007D54FF0000EDCF1000C7EEB00006EEB9A
S315080004900101B1F5801F1BD3B1F5001F0CD3490824
S315080004A05FEA30004FEA3C0C04F101044FEA44527B
S315080004B012F5800F80F09A80BCF1004F08BF5FEA02
S315080004C0500C50F1000041EB045141EA050130BDE2
S315080004D05FEA4C0C404141EB010111F4801FA4F185
S315080004E00104E9D191F0000F04BF01460020B1FADA
S315080004F081F308BF2033A3F10B03B3F120020CDA12
S315080005000C3208DD02F1140CC2F10C0201FA0CF0EF
S3150800051021FA02F10CE002F11402D8BFC2F1200C54
S3150800052001FA02F120FA0CFCDCBF41EA0C0190400A
S31508000530E41AA2BF01EB0451294330BD6FEA040453
S315080005401F3C1CDA0C340EDC04F11404C4F120023E
S3150800055020FA04F001FA02F340EA030021FA04F350
S3150800056045EA030130BDC4F10C04C4F1200220FAA7
S3150800057002F001FA04F340EA0300294630BD21FAE5
S3150800058004F0294630BD94F0000F83F4801306BFAB
S3150800059081F480110134013D4EE77FEA645C18BF9F
S315080005A07FEA655C29D094EA050F08BF90EA020F36
S315080005B005D054EA000C04BF1946104630BD91EA2E
S315080005C0030F1EBF0021002030BD5FEA545C05D131
S315080005D04000494128BF41F0004130BD14F5800470
S315080005E03CBF01F5801130BD01F0004545F0FE41E4
S315080005F041F470014FF0000030BD7FEA645C1ABF19
S31508000600194610467FEA655C1CBF0B46024650EA4F
S31508000610013406BF52EA033591EA030F41F400217B
S3150800062030BD00BF90F0000F04BF0021704730B501
S315080006304FF4806404F132044FF000054FF00001D6
S3150800064050E700BF90F0000F04BF0021704730B597
S315080006504FF4806404F1320410F0004548BF40426C
S315080006604FF000013EE700BF42004FEAE2014FEAC1
S3150800067031014FEA02701FBF12F07F4393F07F4F9C
S3150800068081F06051704792F0000F14BF93F07F4FCE
S31508000690704730B54FF4607401F0004521F0004111
S315080006A020E700BF50EA010208BF704730B54FF097
S315080006B000050AE050EA010208BF704730B511F09C
S315080006C0004502D5404261EB41014FF4806404F1D4
S315080006D032045FEA915C3FF4DCAE4FF003025FEA56
S315080006E0DC0C18BF03325FEADC0C18BF033202EBDE
S315080006F0DC02C2F1200300FA03FC20FA02F001FA38
S3150800070003FE40EA0E0021FA02F11444C1E600BFD6
S3150800071070B54FF0FF0C4CF4E06C1CEA11541DBF89
S315080007201CEA135594EA0C0F95EA0C0F00F0DEF854
S315080007302C4481EA030621EA4C5123EA4C5350EA39
S31508000740013518BF52EA033541F4801143F480138A
S3150800075038D0A0FB02CE4FF00005E1FB02E506F01B
S315080007600042E0FB03E54FF00006E1FB03569CF070
S31508000770000F18BF4EF0010EA4F1FF04B6F5007F76
S3150800078064F5407404D25FEA4E0E6D4146EB0606E8
S3150800079042EAC62141EA55514FEAC52040EA5E5071
S315080007A04FEACE2EB4F1FD0C88BFBCF5E06F1ED81B
S315080007B0BEF1004F08BF5FEA500E50F1000041EB52
S315080007C0045170BD06F0004646EA010140EA0200FF
S315080007D081EA0301B4EB5C04C2BFD4EB0C0541EA21
S315080007E0045170BD41F480114FF0000E013C00F336
S315080007F0AB8014F1360FDEBF002001F0004170BD5A
S31508000800C4F10004203C35DA0C341BDC04F1140472
S31508000810C4F1200500FA05F320FA04F001FA05F2FE
S3150800082040EA020001F0004221F0004110EBD370CB
S3150800083021FA04F642EB06015EEA430E08BF20EAF7
S31508000840D37070BDC4F10C04C4F1200500FA04F39A
S3150800085020FA05F001FA04F240EA020001F000412C
S3150800086010EBD37041F100015EEA430E08BF20EA9F
S31508000870D37070BDC4F1200500FA05F24EEA020EE7
S3150800088020FA04F301FA05F243EA020321FA04F016
S3150800089001F0004121FA04F220EA020000EBD370CD
S315080008A05EEA430E08BF20EAD37070BD94F0000FCD
S315080008B00FD101F00046400041EB010111F4801F01
S315080008C008BF013CF7D041EA060195F0000F18BFB2
S315080008D0704703F00046520043EB030313F4801FEE
S315080008E008BF013DF7D043EA0603704794EA0C0FA8
S315080008F00CEA135518BF95EA0C0F0CD050EA4106BE
S3150800090018BF52EA4306D1D181EA030101F000413A
S315080009104FF0000070BD50EA410606BF1046194662
S3150800092052EA430619D094EA0C0F02D150EA01366E
S3150800093013D195EA0C0F05D152EA03361CBF1046AF
S3150800094019460AD181EA030101F0004141F0FE414E
S3150800095041F470014FF0000070BD41F0FE4141F4D2
S31508000960780170BD70B54FF0FF0C4CF4E06C1CEAD2
S3150800097011541DBF1CEA135594EA0C0F95EA0C0F87
S3150800098000F0A7F8A4EB050481EA030E52EA033542
S315080009904FEA013100F088804FEA03334FF0805563
S315080009A045EA131343EA12634FEA022245EA111590
S315080009B045EA10654FEA00260EF000419D4208BF41
S315080009C0964244F1FD0404F5407402D25B084FEAEE
S315080009D03202B61A65EB03055B084FEA32024FF49A
S315080009E080104FF4002CB6EB020E75EB030E22BFF7
S315080009F0B61A754640EA0C005B084FEA3202B6EBB7
S31508000A00020E75EB030E22BFB61A754640EA5C0065
S31508000A105B084FEA3202B6EB020E75EB030E22BFF5
S31508000A20B61A754640EA9C005B084FEA3202B6EBF6
S31508000A30020E75EB030E22BFB61A754640EADC00B5
S31508000A4055EA060E18D04FEA051545EA16754FEA17
S31508000A5006164FEAC30343EA52734FEAC2025FEA35
S31508000A601C1CC0D111F4801F0BD141EA00014FF0C4
S31508000A7000004FF0004CB6E711F4801F04BF014395
S31508000A800020B4F1FD0C88BFBCF5E06F3FF6AFAEB1
S31508000A90B5EB030C04BFB6EB020C5FEA500C50F141
S31508000AA0000041EB045170BD0EF0004E4EEA1131C4
S31508000AB014EB5C04C2BFD4EB0C0541EA045170BDCB
S31508000AC041F480114FF0000E013C90E645EA060E0F
S31508000AD08DE60CEA135594EA0C0F08BF95EA0C0F3D
S31508000AE03FF43BAF94EA0C0F0AD150EA01347FF485
S31508000AF034AF95EA0C0F7FF425AF104619462CE75C
S31508000B0095EA0C0F06D152EA03353FF4FDAE1046BE
S31508000B10194622E750EA410618BF52EA43067FF40F
S31508000B20C5AE50EA41047FF40DAF52EA43057FF49F
S31508000B30EBAE12E74FF0FF3C06E000BF4FF0010CAA
S31508000B4002E000BF4FF0010C4DF804CD4FEA410C0E
S31508000B507FEA6C5C4FEA430C18BF7FEA6C5C1BD0DB
S31508000B6001B050EA410C0CBF52EA430C91EA030F5C
S31508000B7002BF90EA020F0020704710F1000F91EAB9
S31508000B80030F58BF994208BF90422CBFD8176FEA87
S31508000B90E37040F0010070474FEA410C7FEA6C5C55
S31508000BA002D150EA013C07D14FEA430C7FEA6C5C5C
S31508000BB0D6D152EA033CD3D05DF8040B704700BF88
S31508000BC08446104662468C461946634600E000BFD6
S31508000BD001B5FFF7B7FF002848BF10F1000F01BDA8
S31508000BE04DF808EDFFF7F4FF0CBF012000205DF873
S31508000BF008FB00BF4DF808EDFFF7EAFF34BF0120F8
S31508000C0000205DF808FB00BF4DF808EDFFF7E0FF90
S31508000C1094BF012000205DF808FB00BF4DF808EDE1
S31508000C20FFF7CEFF94BF012000205DF808FB00BF48
S31508000C304DF808EDFFF7C4FF34BF012000205DF82A
S31508000C4008FB00BF4FEA410C7FEA6C5C02D150EA10
S31508000C50013C0AD14FEA430C7FEA6C5C02D152EAA6
S31508000C60033C02D14FF0000070474FF00100704777
S31508000C704FEA410212F5001215D211D56FF47873B6
S31508000C80B3EB625212D94FEAC12343F0004343EA59
S31508000C90505311F0004F23FA02F018BF4042704734
S31508000CA04FF00000704750EA013005D111F00040BE
S31508000CB008BF6FF0004070474FF00000704700BF54
S31508000CC07BB972B90029BEBF00204FF0004106E08B
S31508000CD008BF00281CBF6FF000414FF0FF3000F03E
S31508000CE0ADB9ADF1080C6DE904CE002909DB002B7E
S31508000CF01ADB00F035F8DDF804E0DDE9022304B07C
S31508000D007047404261EB4101002B1BDB00F028F8DD
S31508000D10DDF804E0DDE9022304B0404261EB41015D
S31508000D20524263EB43037047524263EB430300F0BE
S31508000D3017F8DDF804E0DDE9022304B0404261EB70
S31508000D4041017047524263EB430300F009F8DDF8AE
S31508000D5004E0DDE9022304B0524263EB4303704723
S31508000D602DE9F0478C460D460446089E002B51D1C6
S31508000D708A4217466DD9B2FA82FEBEF1000F0BD031
S31508000D80CEF1200C01FA0EF520FA0CFC02FA0EF749
S31508000D904CEA050C00FA0EF44FEA174A250CBCFB80
S31508000DA0FAF81FFA87F90AFB18CC45EA0C4508FB3E
S31508000DB009F3AB420AD9ED1908F1FF3280F0238115
S31508000DC0AB4240F22081A8F102083D44ED1AA4B2D4
S31508000DD0B5FBFAF00AFB105544EA054400FB09F98D
S31508000DE0A14509D9E41900F1FF3380F00A81A1452C
S31508000DF040F2078102383C44A4EB090440EA084063
S31508000E000021002E61D024FA0EF4002334607360AA
S31508000E10BDE8F0878B4207D9002E54D0002186E81A
S31508000E2021000846BDE8F087B3FA83F1002940F0AF
S31508000E308E80AB4202D3824200F2FA80841A65EBB6
S31508000E4003050120AC46002E3FD086E81010BDE809
S31508000E50F08712B90127B7FBF2F7B7FA87FEBEF19A
S31508000E60000F34D1EB1B3A0C1FFA87FC0121B3FBA8
S31508000E70F2F8250C02FB183345EA03450CFB08F388
S31508000E80AB4207D9ED1908F1FF3002D2AB4200F2A6
S31508000E90D1808046ED1AA3B2B5FBF2F002FB1055DD
S31508000EA043EA05440CFB00FCA44507D9E41900F104
S31508000EB0FF3302D2A44500F2B8801846A4EB0C040E
S31508000EC040EA08409DE731463046BDE8F087CEF156
S31508000ED0200405FA0EF307FA0EF720FA04F83A0C7E
S31508000EE025FA04F448EA0308B4FBF2F14FEA184578
S31508000EF002FB11441FFA87FC45EA044501FB0CF383
S31508000F00AB4200FA0EF409D9ED1901F1FF3080F071
S31508000F108A80AB4240F2878002393D44EB1A1FFAB9
S31508000F2088F5B3FBF2F002FB103345EA034500FBF4
S31508000F300CF3AB4207D9ED1900F1FF386FD2AB427B
S31508000F406DD902383D44EB1A40EA01418FE7C1F1F9
S31508000F50200722FA07F88B4005FA01F448EA03034A
S31508000F6020FA07FE4FEA134CFD404EEA040EB5FB85
S31508000F70FCF94FEA1E440CFB19551FFA83F844EA9C
S31508000F80054509FB08F4AC4202FA01F200FA01FA37
S31508000F9008D9ED1809F1FF3043D2AC4241D9A9F17D
S31508000FA002091D442D1B1FFA8EFEB5FBFCF00CFB37
S31508000FB010554EEA054400FB08F8A04507D9E41881
S31508000FC000F1FF3529D2A04527D902381C4440EA4A
S31508000FD00940A4EB0804A0FB02894C45C6464D46C9
S31508000FE015D312D056B1BAEB0E0364EB050404FA16
S31508000FF007F7CB401F43CC40376074600021BDE83B
S31508001000F0871846F8E69046E0E6C245EAD2B8EB1D
S31508001010020E69EB03050138E4E72846D7E74046A0
S3150800102091E78146BEE7014678E702383C4445E742
S31508001030084608E7A8F102083D442BE7704700BFB9
S31508001040B0B582B000AF78607B6819464FF00002F1
S315080010500C4B1B684FF0000403FB02F501FB04F080
S315080010600544A1FB03016B1819464FF47A724FF039
S315080010700003FFF725FE03460C46184621460837A7
S31508001080BD46B0BD0400002090B587B000AF7860BB
S3150800109000F002F90346002B03D0786800F004F943
S315080010A013E005F0BBFBC7E904017868FFF7C8FF42
S315080010B00A460146D7E904345B1844EB0204C7E93B
S315080010C00234D7E9020100F004F800BF1C37BD4618
S315080010D090BD90B583B000AFC7E9000105F09EFB4F
S315080010E00A460146D7E90034994272EB0403B4BFB5
S315080010F001230023DBB2002B00D0EFE700BF0C373B
S31508001100BD4690BD80B584B000AF00F0D7F83B1D52
S31508001110184605F06BFC3B1D0021184606F066F8DC
S31508001120F860FB681B681B68F8689847FB681B68CB
S3150800113004331B680021F8689847154803F043FDF7
S31508001140144803F040FD0021114803F092FD4FF4C6
S315080011504073BB600021104803F08BFDFB681B68D9
S3150800116004331B680021F86898474FF47A70FFF734
S315080011708BFF0121084803F07CFDFB681B680433DC
S315080011801B680121F8689847C820FFF77DFFE1E74B
S3150800119004B00008DCB0000894B0000880B582B03E
S315080011A000AF244A234B1B6E43F001031366214B01
S315080011B01B6E03F001037B607B681E4A1D4B9B6D0B
S315080011C043F0805393651B4B9B6D03F080533B6044
S315080011D03B68032000F074FB002200216FF00B002F
S315080011E000F079FB002200216FF00A0000F073FB83
S315080011F0002200216FF0090000F06DFB002200219B
S315080012006FF0040000F067FB002200216FF0030076
S3150800121000F061FB002200216FF0010000F05BFB8B
S31508001220002200214FF0FF3000F055FB00BF0837C1
S31508001230BD4680BD0010024080B400AF00BFBD4669
S315080012405DF8047B704780B400AFFEE780B400AF5A
S31508001250FEE780B400AFFEE780B400AFFEE780B4D7
S3150800126000AF00BFBD465DF8047B704780B400AF91
S3150800127000BFBD465DF8047B704780B400AF00BF71
S31508001280BD465DF8047B704780B500AF00F040F8B6
S3150800129000F066FB00BF80BD80B400AF002318468F
S315080012A0BD465DF8047B704780B483B000AF7860B4
S315080012B000BF0C37BD465DF8047B704780B500AFAC
S315080012C0032000F0FDFA002000F006F8FFF766FF9D
S315080012D00023184680BDFFFF80B582B000AF786056
S315080012E0094B1B68094AA2FB03239B09184600F011
S315080012F00EFB002279684FF0FF3000F0ECFA00236D
S3150800130018460837BD4680BD04000020D34D62103C
S3150800131080B400AF044B1B680133034A136000BF57
S31508001320BD465DF8047B70470C02002080B400AF10
S31508001330034B1B681846BD465DF8047B704700BF23
S315080013400C02002080B584B000AF7860FFF7EEFF8E
S31508001350B8607B68FB60FB68B3F1FF3F02D0FB68AF
S315080013600133FB6000BFFFF7E1FF0246BB68D21AF4
S31508001370FB689A42F7D300BF1037BD4680BDFFFF12
S3150800138080B483B000AF78600549054B1A687B685E
S3150800139013430B6000BF0C37BD465DF8047B7047EE
S315080013A00004014080B483B000AF78600649064B5C
S315080013B01A687B68DB4313400B6000BF0C37BD46D9
S315080013C05DF8047B704700BF0004014080B483B019
S315080013D000AF78600549054B5A687B6813434B6034
S315080013E000BF0C37BD465DF8047B7047000401401A
S315080013F080B483B000AF78600649064B5A687B68AC
S31508001400DB4313404B6000BF0C37BD465DF8047BD9
S31508001410704700BF0004014080B483B000AF786015
S315080014200549054B9A687B6813438B6000BF0C37E8
S31508001430BD465DF8047B70470004014080B483B064
S3150800144000AF78600649064B9A687B68DB43134011
S315080014508B6000BF0C37BD465DF8047B704700BF44
S315080014600004014080B483B000AF78600549054B9D
S31508001470DA687B681343CB6000BF0C37BD465DF85E
S31508001480047B70470004014080B483B000AF7860E5
S315080014900649064BDA687B68DB431340CB6000BF1E
S315080014A00C37BD465DF8047B704700BF0004014059
S315080014B080B483B000AF7860044A7B68536100BF8C
S315080014C00C37BD465DF8047B704700BF0004014039
S315080014D080B588B000AF78600023BB6100237B61CC
S315080014E000233B610023FB600023FB777B68002B0E
S315080014F007D07B681B681B6803F00043B3F1004FF5
S3150800150002D10123FB77C8E07B6893F82530DBB26C
S31508001510002B15D17B68002283F824207B680022E3
S315080015209A62604A5F4B1B6E43F0010313665D4B7C
S315080015301B6E03F00103BB60BB68786800F0BEF859
S315080015407B681B681B6803F40003002B0CBF012390
S315080015500023DBB23B617B68DA687B681B691A4348
S315080015607B68DB691A437B685B691A437B689B69FE
S315080015701A437B689B681343BB617B681A687B6860
S315080015801B681968484B0B40B9690B4313607B68A5
S315080015905B68B3F5007F06D1444A444B1B6843F4A5
S315080015A00073136005E0414A404B1B6823F400733F
S315080015B013607B681B681B6803F40003002B13D0B9
S315080015C03B69002B10D03A4B1B683A4AA2FB03230F
S315080015D0DB0CC82202FB03F3FB6002E0FB68013B5D
S315080015E0FB60FB68002BF9D17B681B68324A934283
S315080015F002D14FF4001301E04FF480037B617B684E
S315080016001B6A03F00303002B37D07B681B6A03F0C1
S315080016101003002B03D07869FFF7FEFE02E0786915
S31508001620FFF70CFF7B681B6A03F02003002B03D02F
S315080016307869FFF717FF02E07869FFF725FF7869F1
S31508001640FFF736FF7B681B6A03F00203002B03D003
S315080016507869FFF7BBFE02E07869FFF7C9FE7B6889
S315080016601B6A03F00103002B03D07869FFF788FE95
S3150800167009E07869FFF796FE05E07869FFF7B8FE96
S315080016807869FFF78FFE7B6893F82530DBB2002B6D
S3150800169003D17B68012283F82520FB7F1846203773
S315080016A0BD4680BD00100240037C20F904020140BB
S315080016B00400002083DE1B430002014080B483B08F
S315080016C000AF786000BF0C37BD465DF8047B7047F5
S315080016D080B485B000AF78600023BB600023FB733D
S315080016E07B68002B07D07B681B681B6803F00043E8
S315080016F0B3F1004F02D10123FB7326E07B6893F810
S315080017002530DBB2012B1ED17B681B687A6812680C
S31508001710126842F001021A607B68022283F82520CB
S315080017200D4B1B680D4AA2FB0323DA0C13469B00DC
S3150800173013441B01BB6002E0BB68013BBB60BB688E
S31508001740002BF9D101E00123FB73FB7B1846143704
S31508001750BD465DF8047B70470400002083DE1B430A
S3150800176080B485B000AF78607B6803F00703FB6040
S315080017700C4BDB68BB60BA684FF6FF031340BB60CF
S31508001780FB681A02BB68134343F0BF6343F4003394
S31508001790BB60044ABB68D36000BF1437BD465DF81A
S315080017A0047B704700ED00E080B400AF044BDB68B3
S315080017B01B0A03F007031846BD465DF8047B70470D
S315080017C000ED00E080B483B000AF03463960FB71DA
S315080017D097F90730002B0BDA0D49FB7903F00F0355
S315080017E0043B3A68D2B21201D2B20B441A7609E027
S315080017F0084997F907303A68D2B21201D2B20B44B7
S3150800180083F8002300BF0C37BD465DF8047B70479C
S3150800181000ED00E000E100E080B489B000AFF860B8
S31508001820B9607A60FB6803F00703FB61FB69C3F1E3
S315080018300703042B28BF0423BB61FB690433062B6B
S3150800184002D9FB69033B00E000237B610122BB69E7
S3150800185002FA03F35A1EBB681A407B699A400121B3
S315080018607B6901FA03F3591E7B680B40134318463C
S315080018702437BD465DF8047B7047FFFF80B582B00C
S3150800188000AF78607B68013BB3F1807F01D3012309
S315080018900FE00A4A7B68013B53600F214FF0FF3087
S315080018A0FFF790FF054B00229A60044B07221A6047
S315080018B0002318460837BD4680BD00BF10E000E08B
S315080018C080B582B000AF78607868FFF749FF00BF3F
S315080018D00837BD4680BD80B586B000AF0346B960FF
S315080018E07A60FB7300237B61FFF75EFF78617A6895
S315080018F0B9687869FFF790FF024697F90F301146E5
S315080019001846FFF75FFF00BF1837BD4680BD80B594
S3150800191082B000AF78607868FFF7B0FF03461846D4
S315080019200837BD4680BDFFFF80B483B000AF78603E
S315080019307B68042B06D1094A084B1B6843F004034D
S31508001940136005E0054A054B1B6823F00403136082
S3150800195000BF0C37BD465DF8047B704710E000E019
S3150800196080B500AF00F002F800BF80BD80B400AFBC
S3150800197000BFBD465DF8047B704780B483B000AFF6
S31508001980786039607B685B79012B01D102233AE0E4
S315080019907B6801225A717B6802221A717B681B6870
S315080019A07A681268116801203A6800FA02F20A4356
S315080019B01A603B68002B0FD17B681B681B6803F015
S315080019C03C033C2B18D17B681B687A6812685268FE
S315080019D042F001025A600FE07B681B681B6803F43B
S315080019E07013B3F5701F07D17B681B687A68126895
S315080019F0526842F002025A607B6801221A717B68BB
S31508001A0000225A71002318460C37BD465DF8047B40
S31508001A10704780B487B000AFF860B9607A603B6001
S31508001A2000237B61FB681B687B61BB68002B05D1C3
S31508001A307A697B68134408337B6104E07A697B68BA
S31508001A40134414337B617B691A463B681360002391
S31508001A5018461C37BD465DF8047B704780B588B0CC
S31508001A6000AFF860B9607A600023FB610023BB61B0
S31508001A7000237B61FB685B79012B01D10223EFE030
S31508001A80FB6801225A71FB6802221A71BB681B683F
S31508001A90042B6CD17B68002B37D1FFF747FC7861A4
S31508001AA011E0FFF743FC02467B69D31A012B0AD9DA
S31508001AB0FB681B6943F00802FB681A61FB6803228E
S31508001AC01A710323CCE0FB681B685B6B03F40043C5
S31508001AD0002BE6D10120FFF735FCFB681B68BA68C6
S31508001AE092691A641EE0FFF721FC02467B69D31A45
S31508001AF0012B0AD9FB681B6943F00802FB681A61C7
S31508001B00FB6803221A710323AAE0FB681B685B6B58
S31508001B10002BE8DB0120FFF715FCFB681B68BA6899
S31508001B2092695A64FB681B68FA681268916C40F2FD
S31508001B30FF307A6800FA02F2D2431140BA68D069D7
S31508001B407A6800FA02F20A439A64FB681B68FA6824
S31508001B501268D16CFF207A6800FA02F2D24311406B
S31508001B60BA68106A7A6800FA02F20A43DA64BB684D
S31508001B701B69012B19D1FB681B689B6BFB611F2234
S31508001B807B6802FA03F3DB43FA691340FB61BB681F
S31508001B905B69BB61BA697B6802FA03F3FA691343A6
S31508001BA0FB61FB681B68FA699A63FB681B68DB6B59
S31508001BB0FB6107227B6802FA03F3DB43FA691340E9
S31508001BC0FB61BB681A68BB689B681A43BB68DB681D
S31508001BD01343BB61BA697B6802FA03F3FA691343D4
S31508001BE0FB61FB681B68FA69DA63FB681B68FA68BD
S31508001BF0126811684FF480407A6800FA02F2D243FC
S31508001C000A401A60FB681B681B68FB6140F6FC7299
S31508001C107B6802FA03F3DB43FA691340FB61BB688E
S31508001C205B68BB61BA697B6802FA03F3FA69134316
S31508001C30FB61FB681B68FA691A60FB681B68FA682F
S31508001C4012681168C0207A6800FA02F2D2430A4084
S31508001C501A60FB6801221A71FB6800225A71002378
S31508001C6018462037BD4680BD80B400AF044B1B68BC
S31508001C7003F4C0631846BD465DF8047B704700BF91
S31508001C800070004080B485B000AF78600023FB6028
S31508001C907B68B3F5007F2FD1224B1B6803F4C06322
S31508001CA0B3F5007F37D01F4A1E4B1B6823F4C06369
S31508001CB043F4007313601C4B1B681C4AA2FB0323E6
S31508001CC09B0C322202FB03F3FB6002E0FB68013B3C
S31508001CD0FB60FB68002B06D0124B5B6903F480633C
S31508001CE0B3F5806FF2D00F4B5B6903F48063B3F5ED
S31508001CF0806F10D103230FE00A4B1B6803F4C063FF
S31508001D00B3F5806F07D0074A064B1B6823F4C063F8
S31508001D1043F480631360002318461437BD465DF804
S31508001D20047B7047007000400400002083DE1B43DC
S31508001D3080B586B000AF78607B68002B01D101239F
S31508001D4092E37B681B6803F01003002B00F0D08039
S31508001D50A14B9B6803F00C03002B79D19E4B1B68A3
S31508001D6003F00203002B05D07B689B69002B01D189
S31508001D70012379E37B681A6A974B1B6803F008030B
S31508001D80002B04D0944B1B6803F0F00305E0924B3C
S31508001D90D3F894301B0903F0F0039A4223D97B68E1
S31508001DA01B6A184600F0FCFC0346002B01D00123F1
S31508001DB05AE3894A884B1B6843F00803136086492F
S31508001DC0854B1B6823F0F0027B681B6A13430B6084
S31508001DD08149814B5B6823F47F427B68DB691B0280
S31508001DE013434B6022E07C4A7B4B1B6843F0080395
S31508001DF013607949784B1B6823F0F0027B681B6AED
S31508001E0013430B607449744B5B6823F47F427B6809
S31508001E10DB691B0213434B607B681B6A184600F09C
S31508001E20BFFC0346002B01D001231DE300F0FCFB99
S31508001E300146694B9B681B0903F00F03674AD35C8D
S31508001E4021FA03F3664A13600020FFF745FA4FE0CC
S31508001E507B689B69002B32D05F4A5F4B1B6843F057
S31508001E6001031360FFF762FA386108E0FFF75EFACC
S31508001E7002463B69D31A022B01D90323F4E2564BD7
S31508001E801B6803F00203002BF0D0534A524B1B6821
S31508001E9043F00803136050494F4B1B6823F0F002C8
S31508001EA07B681B6A13430B604B494B4B5B6823F4F7
S31508001EB07F427B68DB691B0213434B6018E0464A86
S31508001EC0454B1B6823F001031360FFF72FFA3861AF
S31508001ED008E0FFF72BFA02463B69D31A022B01D911
S31508001EE00323C1E23C4B1B6803F00203002BF0D12D
S31508001EF07B681B6803F00103002B7BD0364B9B687D
S31508001F0003F00C03082B0BD0334B9B6803F00C0330
S31508001F100C2B11D1304BDB6803F00303032B0BD1D9
S31508001F202D4B1B6803F40033002B62D07B685B687B
S31508001F30002B5ED1012397E27B685B68B3F5803F8F
S31508001F4006D1254A244B1B6843F4803313601DE0F1
S31508001F507B685B68B3F5A02F0CD11F4A1E4B1B6824
S31508001F6043F4802313601C4A1B4B1B6843F48033DD
S31508001F7013600BE0184A184B1B6823F48033136070
S31508001F80154A154B1B6823F4802313607B685B682E
S31508001F90002B13D0FFF7CAF9386108E0FFF7C6F936
S31508001FA002463B69D31A642B01D903235CE20A4B28
S31508001FB01B6803F40033002BF0D01BE0FFF7B6F9DB
S31508001FC038610FE0FFF7B2F902463B69D31A642B72
S31508001FD008D9032348E200BF0010024074AD000888
S31508001FE004000020A94B1B6803F40033002BE9D139
S31508001FF000E000BF7B681B6803F00203002B69D072
S31508002000A24B9B6803F00C03042B0BD09F4B9B68D9
S3150800201003F00C030C2B1CD19C4BDB6803F0030369
S31508002020022B16D1994B1B6803F48063002B05D04D
S315080020307B68DB68002B01D1012315E29349934B9A
S315080020405B6823F0F8527B681B691B0613434B60D9
S3150800205040E07B68DB68002B23D08C4A8B4B1B68DF
S3150800206043F480731360FFF761F9386108E0FFF7FE
S315080020705DF902463B69D31A022B01D90323F3E122
S31508002080824B1B6803F48063002BF0D07F497F4B9B
S315080020905B6823F0F8527B681B691B0613434B6089
S315080020A018E07A4A794B1B6823F480731360FFF7AC
S315080020B03DF9386108E0FFF739F902463B69D31A5A
S315080020C0022B01D90323CFE1704B1B6803F480630D
S315080020D0002BF0D17B681B6803F00803002B3CD06B
S315080020E07B685B69002B1CD0684A684BD3F8943030
S315080020F043F00103C2F89430FFF718F9386108E095
S31508002100FFF714F902463B69D31A022B01D90323B8
S31508002110AAE15E4BD3F8943003F00203002BEFD00C
S315080021201BE05A4A594BD3F8943023F00103C2F8FE
S315080021309430FFF7FBF8386108E0FFF7F7F8024636
S315080021403B69D31A022B01D903238DE14F4BD3F8F0
S31508002150943003F00203002BEFD17B681B6803F071
S315080021600403002B00F0A6800023FB75474B9B6DEC
S3150800217003F08053002B0DD1444A444B9B6D43F02A
S3150800218080539365414B9B6D03F08053FB60FB685E
S315080021900123FB753E4B1B6803F48073002B18D193
S315080021A03B4A3B4B1B6843F480731360FFF7BEF84A
S315080021B0386108E0FFF7BAF802463B69D31A022BE2
S315080021C001D9032350E1324B1B6803F48073002BBB
S315080021D0F0D07B689B68012B08D12C4A2B4BD3F88F
S315080021E0903043F00103C2F8903024E07B689B6886
S315080021F0052B10D1254A254BD3F8903043F004031C
S31508002200C2F89030214A214BD3F8903043F00103AD
S31508002210C2F890300FE01D4A1C4BD3F8903023F0DB
S315080022200103C2F89030194A184BD3F8903023F0BE
S315080022300403C2F890307B689B68002B16D0FFF722
S3150800224075F838610AE0FFF771F802463B69D31A58
S3150800225041F28832934201D9032305E10B4BD3F8A7
S31508002260903003F00203002BEDD01AE0FFF75EF87A
S3150800227038610FE0FFF75AF802463B69D31A41F274
S315080022808832934206D90323EEE000BF00100240CD
S3150800229000700040764BD3F8903003F00203002B11
S315080022A0E8D1FB7D012B05D1714A714B9B6D23F05B
S315080022B0805393657B681B6803F02003002B3CD092
S315080022C07B685B6A002B1CD0694A694BD3F8983047
S315080022D043F00103C2F89830FFF728F8386108E0A0
S315080022E0FFF724F802463B69D31A022B01D90323C8
S315080022F0BAE05F4BD3F8983003F00203002BEFD017
S315080023001BE05B4A5A4BD3F8983023F00103C2F816
S315080023109830FFF70BF8386108E0FFF707F8024630
S315080023203B69D31A022B01D903239DE0504BD3F8FE
S31508002330983003F00203002BEFD17B689B6A002BD1
S3150800234000F091804A4B9B6803F00C030C2B00F0BD
S3150800235088807B689B6A022B55D1454A444B1B688B
S3150800236023F080731360FEF7E1FF386108E0FEF79B
S31508002370DDFF02463B69D31A022B01D9032373E01A
S315080023803B4B1B6803F00073002BF0D138497B6880
S315080023901B6B013B1A017B685B6B1B021A437B684C
S315080023A0DB6A1A437B68DB6B5B08013B5B051A43F8
S315080023B07B681B6C5B08013B5B061A437B689B6B5F
S315080023C0DB061343CB602A4A294B1B6843F080730C
S315080023D01360274A264BDB6843F08073D360FEF709
S315080023E0A5FF386108E0FEF7A1FF02463B69D31A4C
S315080023F0022B01D9032337E01D4B1B6803F000733A
S31508002400002BF0D02FE01A4A194B1B6823F0807373
S315080024101360174B1B6803F00063002B05D1144AA1
S31508002420134BDB6823F00303D360114A104BDB68B8
S3150800243023F0887323F48033D360FEF777FF38617F
S3150800244008E0FEF773FF02463B69D31A022B01D94F
S31508002450032309E0064B1B6803F00073002BF0D139
S3150800246001E0012300E0002318461837BD4680BD69
S315080024700010024080B584B000AF786039607B6890
S31508002480002B01D10123C2E0634B1B6803F007024E
S315080024903B689A4210D260495F4B1B6823F00702DB
S315080024A03B6813430B605C4B1B6803F007023B68F1
S315080024B09A4201D00123AAE07B681B6803F0010356
S315080024C0002B4CD07B685B68032B07D1534B1B68EA
S315080024D003F00073002B21D1012398E07B685B6829
S315080024E0022B07D14D4B1B6803F40033002B15D183
S315080024F001238CE07B685B68002B07D1474B1B6880
S3150800250003F00203002B09D1012380E0434B1B682B
S3150800251003F48063002B01D1012378E03F493F4B48
S315080025209B6823F003027B685B6813438B60FEF7A6
S31508002530FDFEF8600AE0FEF7F9FE0246FB68D31ACC
S3150800254041F28832934201D9032360E0334B9B68FA
S3150800255003F00C027B685B689B009A42EBD17B68B0
S315080025601B6803F00203002B08D02C492B4B9B68F1
S3150800257023F0F0027B689B6813438B60264B1B682D
S3150800258003F007023B689A4210D92349224B1B687D
S3150800259023F007023B6813430B601F4B1B6803F0CD
S315080025A007023B689A4201D0012330E07B681B682A
S315080025B003F00403002B08D01849184B9B6823F432
S315080025C0E0627B68DB6813438B607B681B6803F0FB
S315080025D00803002B09D01149104B9B6823F460525D
S315080025E07B681B69DB0013438B6000F01DF801460E
S315080025F00A4B9B681B0903F00F03094AD35C21FAAF
S3150800260003F3084A13600020FEF766FE0023184607
S315080026101037BD4680BD00BF0020024000100240B2
S3150800262074AD00080400002080B487B000AF002312
S315080026307B6100233B610023BB6002237B6002238E
S315080026403B600023FB604C4B9B6803F00C03002B9C
S315080026500BD0494B9B6803F00C030C2B27D1464B38
S31508002660DB6803F00303012B21D1434B1B6803F0FE
S315080026700803002B07D1404BD3F894301B0A03F00C
S315080026800F037B6105E03C4B1B681B0903F00F0336
S315080026907B613A4A7B6952F823307B61364B9B68EB
S315080026A003F00C03002B13D17B69FB6010E0324B5F
S315080026B09B6803F00C03042B02D1314BFB6007E047
S315080026C02D4B9B6803F00C03082B01D12D4BFB60A7
S315080026D0294B9B6803F00C030C2B45D1264BDB6872
S315080026E003F00303BB60244BDB681B0903F00703F5
S315080026F001333B60BB68022B02D0032B0DD019E0D7
S315080027001F4A3B68B2FBF3F31B4AD268120A02F06F
S315080027107F0202FB03F33B6119E01A4A3B68B2FBEE
S31508002720F3F3154AD268120A02F07F0202FB03F39A
S315080027303B610CE07A693B68B2FBF3F30E4AD26858
S31508002740120A02F07F0202FB03F33B6100BF0A4B49
S31508002750DB685B0E03F0030301335B007B603A69B9
S315080027607B68B2FBF3F3FB60FB6818461C37BD4673
S315080027705DF8047B704700BF001002408CAD00086E
S315080027800024F400001BB70080B400AF034B1B689D
S315080027901846BD465DF8047B704700BF040000205C
S315080027A080B586B000AF786000237B6100233B616B
S315080027B02A4B9B6D03F08053002B03D0FFF754FA86
S315080027C0786114E0254A254B9B6D43F08053936549
S315080027D0224B9B6D03F08053FB60FB68FFF744FABE
S315080027E078611E4A1D4B9B6D23F0805393657B6968
S315080027F0B3F5007F0BD17B68802B19D97B68A02B9A
S3150800280002D902233B6113E001233B6110E07B6898
S31508002810802B02D903233B610AE07B68802B02D117
S3150800282002233B6104E07B68702B01D101233B61E5
S315080028300B490B4B1B6823F007023B6913430B60DC
S31508002840074B1B6803F007023B699A4201D0012334
S3150800285000E0002318461837BD4680BD0010024028
S315080028600020024080B586B000AF786000237B6107
S315080028700023FB600023FB740023BB747B681B6882
S3150800288003F40063002B2FD07B685B6CB3F5000F55
S3150800289005D0B3F5400F15D0002B07D00FE05A4AE4
S315080028A0594BDB6843F48033D3600CE07B68043310
S315080028B00021184600F0EAF90346FB7403E00123F9
S315080028C0FB7400E000BFFB7C002B0BD14E494E4B3E
S315080028D0D3F8883023F440027B685B6C1343C1F855
S315080028E0883001E0FB7CBB747B681B6803F400330B
S315080028F0002B00F0988000237B74434B9B6D03F0FC
S315080029008053002B0DD1404A3F4B9B6D43F08053BB
S3150800291093653D4B9B6D03F08053BB60BB680123F9
S315080029207B743A4A394B1B6843F480731360FEF78D
S31508002930FDFCF86009E0FEF7F9FC0246FB68D31ACD
S31508002940022B02D90323FB7405E0304B1B6803F402
S315080029508073002BEFD0FB7C002B59D12A4BD3F880
S31508002960903003F440737B617B69002B1ED07B6833
S315080029709A6D7B699A4219D0234BD3F8903023F489
S3150800298040737B61204A204BD3F8903043F4803360
S31508002990C2F890301C4A1C4BD3F8903023F480338D
S315080029A0C2F89030184A7B69C2F890307B6903F008
S315080029B00103002B16D0FEF7B9FCF8600BE0FEF712
S315080029C0B5FC0246FB68D31A41F28832934202D913
S315080029D00323FB7406E00C4BD3F8903003F0020394
S315080029E0002BECD0FB7C002B0BD10749064BD3F808
S315080029F0903023F440727B689B6D1343C1F8903086
S31508002A0008E0FB7CBB7405E0001002400070004043
S31508002A10FB7CBB747B7C012B05D19B4A9A4B9B6D37
S31508002A2023F0805393657B681B6803F00103002B32
S31508002A300AD09549944BD3F8883023F003027B6873
S31508002A401B6A1343C1F888307B681B6803F00203CE
S31508002A50002B0AD08C498C4BD3F8883023F00C0213
S31508002A607B685B6A1343C1F888307B681B6803F090
S31508002A700403002B0AD08449834BD3F8883023F00B
S31508002A8030027B689B6A1343C1F888307B681B68F1
S31508002A9003F02003002B0AD07B497B4BD3F8883000
S31508002AA023F440627B68DB6A1343C1F888307B688D
S31508002AB01B6803F40073002B0AD07349724BD3F8D2
S31508002AC0883023F440227B68DB6B1343C1F88830D7
S31508002AD07B681B6803F48063002B0AD06A496A4B3B
S31508002AE0D3F8883023F440127B681B6C1343C1F873
S31508002AF088307B681B6803F04003002B0AD06249C4
S31508002B00614BD3F8883023F440527B681B6B134320
S31508002B10C1F888307B681B6803F08003002B0AD055
S31508002B205949594BD3F8883023F440427B685B6B8C
S31508002B301343C1F888307B681B6803F48073002B45
S31508002B400AD05149504BD3F8883023F440327B6879
S31508002B509B6B1343C1F888307B681B6803F400231A
S31508002B60002B28D04849484BD3F8883023F04062D8
S31508002B707B689B6C1343C1F888307B689B6CB3F108
S31508002B80006F06D1404A404BDB6843F48013D3609C
S31508002B9011E07B689B6CB3F1806F0CD17B680433C2
S31508002BA00121184600F072F80346FB74FB7C002BE3
S31508002BB001D0FB7CBB747B681B6803F48023002B65
S31508002BC028D03149304BD3F8883023F040627B68EF
S31508002BD0DB6C1343C1F888307B68DB6CB3F1006F9C
S31508002BE006D1294A284BDB6843F48013D36011E0E9
S31508002BF07B68DB6CB3F1806F0CD17B6804330121F1
S31508002C00184600F043F80346FB74FB7C002B01D002
S31508002C10FB7CBB747B681B6803F48043002B1CD0C9
S31508002C201949194BD3F8883023F040527B681B6D3D
S31508002C301343C1F888307B681B6DB3F1805F0CD1F4
S31508002C407B6804330221184600F020F80346FB741B
S31508002C50FB7C002B01D0FB7CBB747B681B6803F4F0
S31508002C600043002B0AD00849074BD3F8883023F0D5
S31508002C7080427B685B6D1343C1F88830BB7C18467D
S31508002C801837BD4680BD00BF0010024080B584B02D
S31508002C9000AF786039600023BB600023FB73734B79
S31508002CA0DB6803F00303002B18D0704BDB6803F0D6
S31508002CB003027B681B689A420DD17B681B68002B50
S31508002CC009D06A4BDB681B0903F007035A1C7B68AB
S31508002CD05B689A4244D00123FB7341E07B681B681A
S31508002CE0022B0CD0032B13D0012B20D15F4B1B6872
S31508002CF003F00203002B1DD10123FB731AE05B4B83
S31508002D001B6803F48063002B16D10123FB7313E0C1
S31508002D10564B1B6803F40033002B0FD1534B1B682B
S31508002D2003F48023002B09D10123FB7306E001235A
S31508002D30FB7304E000BF02E000BF00E000BFFB7BBE
S31508002D40002B0DD14948494BDB6823F073027B6899
S31508002D5019687B685B68013B1B010B431343C3601F
S31508002D60FB7B002B7CD1414A404B1B6823F08063D8
S31508002D701360FEF7DBFAB86009E0FEF7D7FA0246F9
S31508002D80BB68D31A022B02D90323FB7305E0374B22
S31508002D901B6803F00063002BEFD1FB7B002B5FD190
S31508002DA03B68002B10D13148304B1B6923F0784320
S31508002DB023F4FE437A68926811027A68D268D206CA
S31508002DC00A431343036127E03B68012B12D12748C6
S31508002DD0264B1B6923F4C00323F4FE437A689268E2
S31508002DE011027A6812695208013A52050A431343D6
S31508002DF0036111E01D481D4B1B6923F0C06323F4D2
S31508002E00FE437A68926811027A6852695208013A52
S31508002E1052060A4313430361144A144B1B6843F0D2
S31508002E2080631360FEF782FAB86009E0FEF77EFA5F
S31508002E300246BB68D31A022B02D90323FB7305E0AB
S31508002E400A4B1B6803F00063002BEFD0FB7B002BBB
S31508002E5006D10649054B1A697B689B6913430B61C2
S31508002E60FB7B18461037BD4680BD00BF00100240E8
S31508002E7080B582B000AF78607B68002B01D1012352
S31508002E801DE07B6893F83D30DBB2002B06D17B68EA
S31508002E90002283F83C20786800F015F87B68022247
S31508002EA083F83D207B681A687B6804331946104608
S31508002EB000F0F6F97B68012283F83D2000231846C6
S31508002EC00837BD4680BD80B483B000AF786000BFC8
S31508002ED00C37BD465DF8047B7047FFFF80B582B0AE
S31508002EE000AF786039607B681B680122396818462C
S31508002EF000F0B8FC7B681B681A4A934209D07B68C5
S31508002F001B68194A934204D07B681B68174A934288
S31508002F1001D1012300E00023002B07D07B681B6842
S31508002F207A681268526C42F400425A647B681B68DD
S31508002F309A680F4B1340062B0FD07B681B689A685C
S31508002F400B4B1340B3F5803F07D07B681B687A6844
S31508002F501268126842F001021A6000231846083700
S31508002F60BD4680BD002C01400040014000440140A0
S31508002F700700010080B584B000AFF860B9607A60D8
S31508002F80FB6893F83C30012B01D102236CE0FB6807
S31508002F90012283F83C20FB68022283F83D207B68E7
S31508002FA0142B57D801A252F823F000BF01300008AD
S31508002FB05530000855300008553000080F30000815
S31508002FC05530000855300008553000081D300008F7
S31508002FD05530000855300008553000082B300008D9
S31508002FE055300008553000085530000839300008BB
S31508002FF0553000085530000855300008473000089D
S31508003000FB681B68B968184600F0AEF923E0FB6850
S315080030101B68B968184600F023FA1CE0FB681B68B1
S31508003020B968184600F096FA15E0FB681B68B96897
S31508003030184600F007FB0EE0FB681B68B9681846DF
S3150800304000F05EFB07E0FB681B68B968184600F0ED
S31508003050AFFB00E000BFFB68012283F83D20FB6858
S31508003060002283F83C20002318461037BD4680BD51
S3150800307080B584B000AFF860B9607A60FB6893F8F1
S315080030803C30012B01D1022305E1FB68012283F8BC
S315080030903C20FB68022283F83D207B68142B00F253
S315080030A0F08001A252F823F0FD30000883320008B0
S315080030B083320008833200083D3100088332000855
S315080030C083320008833200087F3100088332000803
S315080030D08332000883320008BF31000883320008B3
S315080030E08332000883320008013200088332000860
S315080030F0833200088332000841320008FB681B68E7
S31508003100B968184600F030F9FB681B68FA68126857
S31508003110926942F008029A61FB681B68FA681268AD
S31508003120926922F004029A61FB681B68FA681268C1
S315080031309169BA6812690A439A61A3E0FB681B6839
S31508003140B968184600F08CF9FB681B68FA681268BB
S31508003150926942F400629A61FB681B68FA68126811
S31508003160926922F480629A61FB681B68FA681268A1
S315080031709169BA68126912020A439A6182E0FB6889
S315080031801B68B968184600F0E5F9FB681B68FA6819
S315080031901268D26942F00802DA61FB681B68FA68AD
S315080031A01268D26922F00402DA61FB681B68FA68C1
S315080031B01268D169BA6812690A43DA6162E0FB6883
S315080031C01B68B968184600F03DFAFB681B68FA6880
S315080031D01268D26942F40062DA61FB681B68FA6811
S315080031E01268D26922F48062DA61FB681B68FA68A1
S315080031F01268D169BA68126912020A43DA6141E0B3
S31508003200FB681B68B968184600F07AFAFB681B6801
S31508003210FA681268526D42F008025A65FB681B6824
S31508003220FA681268526D22F004025A65FB681B6838
S31508003230FA681268516DBA6812690A435A6521E03C
S31508003240FB681B68B968184600F0B2FAFB681B6889
S31508003250FA681268526D42F400625A65FB681B6888
S31508003260FA681268526D22F480625A65FB681B6818
S31508003270FA681268516DBA68126912020A435A65E9
S3150800328000E000BFFB68012283F83D20FB680022AE
S3150800329083F83C20002318461037BD4680BD00BF82
S315080032A080B485B000AF786039607B681B68FB60C6
S315080032B07B682A4A934203D07B68B3F1804F08D1D2
S315080032C0FB6823F07003FB603B685B68FA6813438E
S315080032D0FB607B68214A93420BD07B68B3F1804F31
S315080032E007D07B681E4A934203D07B681D4A9342E7
S315080032F008D1FB6823F44073FB603B68DB68FA6817
S315080033001343FB60FB6823F080023B685B69134349
S31508003310FB607B68FA681A603B689A687B68DA62C1
S315080033203B681A687B689A627B680C4A934207D0A6
S315080033307B680B4A934203D07B680A4A934203D1BF
S315080033403B681A697B681A637B6801225A6100BF69
S315080033501437BD465DF8047B704700BF002C01405A
S31508003360004001400044014080B487B000AF786057
S3150800337039607B681B6A23F001027B681A627B68E6
S315080033801B6A7B617B685B683B617B689B69FB604A
S31508003390FB6823F4803323F07003FB60FB6823F09B
S315080033A00303FB603B681B68FA681343FB607B6991
S315080033B023F002037B613B689B687A6913437B6150
S315080033C07B68244A934207D07B68234A934203D0FA
S315080033D07B68224A93420CD17B6923F008037B6100
S315080033E03B68DB687A6913437B617B6923F00403D6
S315080033F07B617B68174A934207D07B68164A9342DB
S3150800340003D07B68154A934211D13B6923F4807334
S315080034103B613B6923F400733B613B685B693A692E
S3150800342013433B613B689B693A6913433B617B687D
S315080034303A695A607B68FA689A613B685A687B6899
S315080034405A637B687A691A6200BF1C37BD465DF805
S31508003450047B7047002C01400040014000440140B5
S3150800346080B487B000AF786039607B681B6A23F048
S3150800347010027B681A627B681B6A7B617B685B68E3
S315080034803B617B689B69FB60FB6823F0807323F4D0
S31508003490E043FB60FB6823F44073FB603B681B68F2
S315080034A01B02FA681343FB607B6923F020037B61E8
S315080034B03B689B681B017A6913437B617B68224AD8
S315080034C093420DD17B6923F080037B613B68DB68FF
S315080034D01B017A6913437B617B6923F040037B6197
S315080034E07B68194A934207D07B68184A934203D0EF
S315080034F07B68174A934213D13B6923F480633B6187
S315080035003B6923F400633B613B685B699B003A694E
S3150800351013433B613B689B699B003A6913433B61D4
S315080035207B683A695A607B68FA689A613B685A68A8
S315080035307B689A637B687A691A6200BF1C37BD4646
S315080035405DF8047B704700BF002C01400040014035
S315080035500044014080B487B000AF786039607B686A
S315080035601B6A23F480727B681A627B681B6A7B611C
S315080035707B685B683B617B68DB69FB60FB6823F4FF
S31508003580803323F07003FB60FB6823F00303FB60C2
S315080035903B681B68FA681343FB607B6923F4007376
S315080035A07B613B689B681B027A6913437B617B6876
S315080035B0214A93420DD17B6923F400637B613B6802
S315080035C0DB681B027A6913437B617B6923F480639A
S315080035D07B617B68184A934207D07B68174A9342F7
S315080035E003D07B68164A934213D13B6923F4805370
S315080035F03B613B6923F400533B613B685B691B01F4
S315080036003A6913433B613B689B691B013A6913435B
S315080036103B617B683A695A607B68FA68DA613B689D
S315080036205A687B68DA637B687A691A6200BF1C3756
S31508003630BD465DF8047B7047002C01400040014000
S315080036400044014080B487B000AF786039607B6879
S315080036501B6A23F480527B681A627B681B6A3B618B
S315080036607B685B687B617B68DB69FB60FB6823F0D2
S31508003670807323F4E043FB60FB6823F44073FB602C
S315080036803B681B681B02FA681343FB603B6923F41B
S3150800369000533B613B689B681B033A6913433B61D4
S315080036A07B68144A934207D07B68134A934203D037
S315080036B07B68124A934209D17B6923F480437B6174
S315080036C03B685B699B017A6913437B617B687A690E
S315080036D05A607B68FA68DA613B685A687B681A64DC
S315080036E07B683A691A6200BF1C37BD465DF8047BE1
S315080036F0704700BF002C01400040014000440140D3
S3150800370080B487B000AF786039607B681B6A23F4A1
S3150800371080327B681A627B681B6A3B617B685B68E0
S315080037207B617B685B6DFB60FB6823F4803323F069
S315080037307003FB603B681B68FA681343FB603B69D0
S3150800374023F400333B613B689B681B043A691343C7
S315080037503B617B68134A934207D07B68124A9342BF
S3150800376003D07B68114A934209D17B6923F48033DD
S315080037707B613B685B691B027A6913437B617B68E3
S315080037807A695A607B68FA685A653B685A687B6842
S315080037909A657B683A691A6200BF1C37BD465DF8B0
S315080037A0047B7047002C0140004001400044014062
S315080037B080B487B000AF786039607B681B6A23F4F1
S315080037C080127B681A627B681B6A3B617B685B6850
S315080037D07B617B685B6DFB60FB6823F0807323F479
S315080037E0E043FB603B681B681B02FA681343FB60F7
S315080037F03B6923F400133B613B689B681B053A69E8
S3150800380013433B617B68144A934207D07B68134A8B
S31508003810934203D07B68124A934209D17B6923F409
S3150800382080237B613B685B699B027A6913437B61F2
S315080038307B687A695A607B68FA685A653B685A6891
S315080038407B68DA657B683A691A6200BF1C37BD4631
S315080038505DF8047B704700BF002C01400040014022
S315080038600044014080B487B000AFF860B9607A6060
S31508003870BB6803F01F03012202FA03F37B61FB68AE
S315080038801A6A7B69DB431A40FB681A62FB681A6A84
S31508003890BB6803F01F03796801FA03F31A43FB6850
S315080038A01A6200BF1C37BD465DF8047B7047FFFFF0
S315080038B080B485B000AF786039607B6893F83C3097
S315080038C0012B01D1022340E07B68012283F83C20CA
S315080038D07B68022283F83D207B681B685B68FB6077
S315080038E07B681B689B68BB607B681B681A4A9342A7
S315080038F008D1FB6823F47003FB603B685B68FA68D1
S315080039001343FB60FB6823F07003FB603B681B688E
S31508003910FA681343FB60BB6823F08003BB603B680F
S315080039209B68BA681343BB607B681B68FA685A6071
S315080039307B681B68BA689A607B68012283F83D2019
S315080039407B68002283F83C20002318461437BD46BE
S315080039505DF8047B704700BF002C014080B485B039
S3150800396000AF786039600023FB607B6893F83C30D1
S31508003970012B01D1022360E07B68012283F83C20F9
S31508003980FB6823F0FF023B68DB681343FB60FB68B8
S3150800399023F440723B689B681343FB60FB6823F47F
S315080039A080623B685B681343FB60FB6823F4006234
S315080039B03B681B681343FB60FB6823F480523B6833
S315080039C01B691343FB60FB6823F400523B685B6981
S315080039D01343FB60FB6823F480423B689B6A1343EE
S315080039E0FB60FB6823F470223B689B691B04134346
S315080039F0FB607B681B68144A934215D1FB6823F465
S31508003A0070023B685B6A1B051343FB60FB6823F087
S31508003A1080723B68DB691343FB60FB6823F0007226
S31508003A203B681B6A1343FB607B681B68FA685A6429
S31508003A307B68002283F83C20002318461437BD46CD
S31508003A405DF8047B704700BF002C014080B48BB042
S31508003A5000AFF860B9607A6000237B6200233B629E
S31508003A600023FB610023BB61FB6893F83C30012B04
S31508003A7001D102237FE0FB68012283F83C207B68A2
S31508003A801B68022B0ED0042B16D0012B00D01DE08C
S31508003A9001237B620023FB614FF400733B62092319
S31508003AA0BB6113E002237B620123FB614FF4806351
S31508003AB03B620A23BB6109E004237B620223FB61A4
S31508003AC04FF400633B620B23BB6100BFBB68012B4D
S31508003AD002D0022B25D049E0FB681B681B6E7B6170
S31508003AE07B6ADB437A6913407B617B685A68FB69AA
S31508003AF09A407B6A13407A6913437B613B6ADB43CE
S31508003B007A6913407B617B689A68BB699A403B6A0D
S31508003B1013407A6913437B61FB681B687A691A66E6
S31508003B2024E0FB681B685B6E7B617B6ADB437A6912
S31508003B3013407B617B685A68FB699A407B6A13402D
S31508003B407A6913437B613B6ADB437A6913407B617D
S31508003B507B689A68BB699A403B6A13407A69134343
S31508003B607B61FB681B687A695A6600BFFB6800229E
S31508003B7083F83C20002318462C37BD465DF8047BA5
S31508003B80704780B489B000AFF860B9607A60FB68A6
S31508003B901A68BB687B617B6993FAA3F33B613B694F
S31508003BA0B3FA83F35B00032101FA03F3DB431A40FC
S31508003BB0BB68FB61FB6993FAA3F3BB61BB69B3FA04
S31508003BC083F35B00796801FA03F31A43FB681A600A
S31508003BD000BF2437BD465DF8047B704780B485B0C6
S31508003BE000AFF860B9607A60FB685A68BB68DB4367
S31508003BF01A40BB68796801FB03F31A43FB685A60ED
S31508003C0000BF1437BD465DF8047B704780B489B0A1
S31508003C1000AFF860B9607A60FB689A68BB687B6138
S31508003C207B6993FAA3F33B613B69B3FA83F35B00C1
S31508003C30032101FA03F3DB431A40BB68FB61FB6906
S31508003C4093FAA3F3BB61BB69B3FA83F35B007968A4
S31508003C5001FA03F31A43FB689A6000BF2437BD468E
S31508003C605DF8047B704780B489B000AFF860B9602E
S31508003C707A60FB68DA68BB687B617B6993FAA3F3B1
S31508003C803B613B69B3FA83F35B00032101FA03F353
S31508003C90DB431A40BB68FB61FB6993FAA3F3BB617C
S31508003CA0BB69B3FA83F35B00796801FA03F31A4335
S31508003CB0FB68DA6000BF2437BD465DF8047B7047B1
S31508003CC080B489B000AFF860B9607A60FB681A6A98
S31508003CD0BB687B617B6993FAA3F33B613B69B3FAE3
S31508003CE083F39B000F2101FA03F3DB431A40BB68F9
S31508003CF0FB61FB6993FAA3F3BB61BB69B3FA83F370
S31508003D009B00796801FA03F31A43FB681A6200BF3D
S31508003D102437BD465DF8047B704780B489B000AF90
S31508003D20F860B9607A60FB685A6ABB681B0A7B61EF
S31508003D307B6993FAA3F33B613B69B3FA83F39B0070
S31508003D400F2101FA03F3DB431A40BB681B0AFB6128
S31508003D50FB6993FAA3F3BB61BB69B3FA83F39B00D0
S31508003D60796801FA03F31A43FB685A6200BF2437DD
S31508003D70BD465DF8047B704780B588B000AF7860B3
S31508003D8039600023FB610023BB613B681B687B61CC
S31508003D907B6993FAA3F33B613B69B3FA83F3FB614F
S31508003DA048E03B681A680121FB6901FA03F31340EE
S31508003DB0BB61BB69002B3AD03B685B681A46B96998
S31508003DC07868FFF7DEFE3B685B68012B03D03B682B
S31508003DD05B68022B06D13B689B681A46B969786806
S31508003DE0FFF714FF3B681B691A46B9697868FFF73D
S31508003DF03AFF3B685B68022B19D1BB69FB60FB681D
S31508003E0093FAA3F3BB60BB68B3FA83F3072B07D80F
S31508003E103B685B691A46B9697868FFF751FF06E09F
S31508003E203B685B691A46B9697868FFF776FFFB69EC
S31508003E300133FB613B681A68FB6922FA03F3002B1E
S31508003E40AFD13B685B68012B03D03B685B68022BEC
S31508003E5007D13B6819683B68DB681A467868FFF73C
S31508003E60BDFE012318462037BD4680BD80B400AF8D
S31508003E70074B1B6803F48063B3F5806F0CBF0123FF
S31508003E800023DBB21846BD465DF8047B704700BFC9
S31508003E900010024080B400AF074BD3F8903003F00F
S31508003EA00203022B0CBF01230023DBB21846BD46D2
S31508003EB05DF8047B704700BF0010024080B400AF75
S31508003EC0064B1B6803F00803082B0CBF01230023CD
S31508003ED0DBB21846BD465DF8047B70470010024009
S31508003EE080B400AF044B1B6803F0F0031846BD46C8
S31508003EF05DF8047B704700BF0010024080B400AF35
S31508003F00044BD3F8943003F470631846BD465DF845
S31508003F10047B70470010024080B400AF044B9B68D6
S31508003F2003F00C031846BD465DF8047B704700BFD6
S31508003F300010024080B400AF044B9B6803F0F00306
S31508003F401846BD465DF8047B704700BF0010024066
S31508003F5080B400AF044B9B6803F4E0631846BD4683
S31508003F605DF8047B704700BF0010024080B400AFC4
S31508003F70044B9B6803F460531846BD465DF8047B02
S31508003F80704700BF0010024080B483B000AF78606D
S31508003F90064BD3F888207B681A407B681B041343BA
S31508003FA018460C37BD465DF8047B70470010024082
S31508003FB080B400AF044BDB6803F003031846BD4624
S31508003FC05DF8047B704700BF0010024080B400AF64
S31508003FD0044BDB681B0A03F07F031846BD465DF8F1
S31508003FE0047B70470010024080B400AF044BDB68C6
S31508003FF003F0C0631846BD465DF8047B704700BFF2
S315080040000010024080B400AF044BDB6803F0700375
S315080040101846BD465DF8047B704700BF0010024095
S3150800402080B584B000AF78600023FB607B68032B03
S315080040302ED17868FFF7A8FF03464F4A934209D066
S31508004040B3F1031F0ED04D4A934214D100F0A2F8E3
S31508004050F8608BE0FFF70AFF0346002B7BD0484B3E
S31508004060FB6078E0FFF716FF0346002B75D04FF488
S315080040700043FB6071E000F08DF80346184600F037
S315080040801BF90346184600F041F9F86000BF6DE0D9
S315080040907B680C2B2ED17868FFF776FF0346394AE2
S315080040A0934209D0B3F10C1F0ED0374A934214D16C
S315080040B000F070F8F86059E0FFF7D8FE0346002BC9
S315080040C04DD02F4BFB604AE0FFF7E4FE0346002B7A
S315080040D047D04FF40043FB6043E000F05BF803462B
S315080040E0184600F0E9F80346184600F0FBF8F860B1
S315080040F000BF3BE07B68302B38D17868FFF744FF78
S315080041000346224A934209D0B3F1301F0ED0204A03
S31508004110934214D100F03EF8F86027E0FFF7A6FEB8
S315080041200346002B1FD0164BFB601CE0FFF7B2FEC0
S315080041300346002B19D04FF40043FB6015E000F04E
S3150800414029F80346184600F0B7F80346184600F063
S31508004150C9F8F8600AE000BF08E000BF06E000BF43
S3150800416004E000BF02E000BF00E000BFFB6818469D
S315080041701037BD4680BD00BF0200030001000300E2
S315080041800024F40008000C0004000C002000300095
S315080041901000300080B582B000AF00237B60FFF7C7
S315080041A0BBFE03460C2B51D801A252F823F000BFE0
S315080041B0E54100084D4200084D4200084D420008FE
S315080041C0394200084D4200084D4200084D42000899
S315080041D03F4200084D4200084D4200084D42000883
S315080041E045420008FFF76AFE0346002B11D1FFF788
S315080041F065FE0346002B04D0FFF772FE03461B0A32
S3150800420003E0FFF77BFE03461B0A284A52F82330D1
S3150800421010E0FFF753FE0346002B04D0FFF760FEBD
S3150800422003461B0903E0FFF769FE03461B091F4AFD
S3150800423052F823307B6033E01D4B7B6030E01D4B2A
S315080042407B602DE000F076F8786029E0FFF736FE0F
S315080042500346002B11D1FFF731FE0346002B04D08D
S31508004260FFF73EFE03461B0A03E0FFF747FE034639
S315080042701B0A0E4A52F8233010E0FFF71FFE0346CA
S31508004280002B04D0FFF72CFE03461B0903E0FFF7BB
S3150800429035FE03461B09054A52F823307B6000BFEA
S315080042A07B6818460837BD4680BD00BF8CAD000840
S315080042B00024F400001BB70080B582B000AF786018
S315080042C0FFF738FE03461B0903F00F03044AD35CC5
S315080042D01A467B68D34018460837BD4680BD00BFDE
S315080042E074AD000880B582B000AF7860FFF730FE85
S315080042F003461B0A044AD35C1A467B68D340184611
S315080043000837BD4680BD00BF84AD000880B582B0C1
S3150800431000AF7860FFF72AFE0346DB0A044AD35C3F
S315080043201A467B68D34018460837BD4680BD00BF8D
S3150800433084AD000890B583B000AF00237B600023EE
S315080043403B60FFF735FE38603B68022B2DD0032B08
S315080043502ED0012B2FD1FFF7B1FD0346002B11D12B
S31508004360FFF7ACFD0346002B04D0FFF7B9FD034663
S315080043701B0A03E0FFF7C2FD03461B0A2F4A52F841
S31508004380233010E0FFF79AFD0346002B04D0FFF711
S31508004390A7FD03461B0903E0FFF7B0FD03461B090B
S315080043A0264A52F823307B602FE0254B7B602CE0B1
S315080043B0244B7B6029E0FFF781FD0346002B11D1D2
S315080043C0FFF77CFD0346002B04D0FFF789FD034663
S315080043D01B0A03E0FFF792FD03461B0A174A52F829
S315080043E0233010E0FFF76AFD0346002B04D0FFF7E1
S315080043F077FD03461B0903E0FFF780FD03461B090B
S315080044000E4A52F823307B6000BFFFF7FBFD0346D8
S315080044101B0901337A68B2FBF3F4FFF7D7FD0346AD
S3150800442003FB04F4FFF7E0FD03465B0E01335B0074
S31508004430B4FBF3F318460C37BD4690BD8CAD0008A7
S315080044400024F400001BB70080B483B000AF786086
S315080044507B681B6803F04003402B01D1012300E071
S31508004460002318460C37BD465DF8047B704780B4B8
S3150800447083B000AF786039603B689BB21A467B68A8
S315080044801A6100BF0C37BD465DF8047B704780B5DE
S3150800449084B000AF786039600023FB737868FFF753
S315080044A0D3FF0346002B3BD17B681B6823F47F436D
S315080044B023F0BF033A6811683A68526811433A68AC
S315080044C0D26811433A68126911433A68526911432E
S315080044D03A68926911433A68D26911433A68126A8E
S315080044E00A431A437B681A607B685B6823F4706327
S315080044F023F004033A6891683A685269120C0A4331
S315080045001A437B685A603B681B6AB3F5005F05D19E
S315080045103B685B6A19467868FFF7A9FF0123FB73B6
S31508004520FB7B18461037BD4680BD80B483B000AF0C
S3150800453078607B681B6803F00103012B0CBF01231D
S315080045400023DBB218460C37BD465DF8047B70477E
S3150800455080B483B000AF786039607B685B6823F409
S3150800456040523B681A437B685A6000BF0C37BD4609
S315080045705DF8047B704780B483B000AF786039601B
S315080045807B689B6823F440723B681A437B689A6091
S3150800459000BF0C37BD465DF8047B7047B0B485B0E4
S315080045A000AFF860B9607A603B60002500247B683C
S315080045B0B3F5004F14D1BB685A003B685B081A4430
S315080045C03B68B2FBF3F39BB21D464FF6F0742C40E2
S315080045D06B089BB203F007031C43FB68DC600AE028
S315080045E03B685A08BB681A443B68B2FBF3F39BB2B4
S315080045F01A46FB68DA6000BF1437BD46B0BC704780
S3150800460080B584B000AF786039600023FB7300235F
S31508004610BB607868FFF789FF0346002B48D17B68A3
S315080046201A68264B13403A6851683A68D2681143AB
S315080046303A68126911433A6892690A431A437B68D1
S315080046401A603B689B6819467868FFF781FF3B68E4
S315080046505B6919467868FFF78EFF7B68184A9342AC
S3150800466004D10320FFF7DCFCB86010E07B68154A2C
S31508004670934204D10C20FFF7D3FCB86007E07B68AF
S31508004680114A934203D13020FFF7CAFCB860BB68D1
S31508004690002B0DD03B681B68002B09D00123FB7348
S315080046A03B689A693B681B68B9687868FFF776FFC4
S315080046B0FB7B18461037BD4680BD00BFF369FFEF88
S315080046C000380140004400400048004080B5AEB0C4
S315080046D000AF09237B674FF48033BB670123C7F814
S315080046E088300223C7F89C300323C7F8A030032379
S315080046F0C7F8A4302823C7F8A8300723C7F8AC3072
S315080047000223C7F8B0300223C7F8B43007F17403A0
S315080047101846FDF70DFB0346002B03D01F21304832
S3150800472000F04BFA0F233B6603237B660023BB6628
S315080047304FF48063FB664FF480633B6707F16003C1
S3150800474004211846FDF796FE0346002B03D02D21BB
S31508004750234800F032FA44F247037B6000237B6269
S315080047600023BB620023FB6200237B634FF0805368
S315080047707B650323BB600323FB6010233B61072390
S315080047807B610223BB610223FB614FF080733B62AE
S315080047903B1D1846FEF766F80346002B03D0412159
S315080047A00F4800F00AFA4FF40070FDF76BFA03465B
S315080047B0002B03D048210A4800F0FFF9FDF7E4FF73
S315080047C00246084BA3FB02239B091846FDF79FF8F0
S315080047D00420FDF7A9F800BFB837BD4680BD00BF65
S315080047E020AB0008D34D621080B400AF01231846F1
S315080047F0BD465DF8047B704780B582B000AF78602F
S31508004800396003F0DDFC0246162313604FF0FF33D0
S3150800481018460837BD4680BD80B582B000AF7860BF
S315080048204FF0FF317868FFF7E7FFFEE780B584B001
S3150800483000AF7860154B1B68002B08D1134B144A40
S315080048401A60124B1B6803F5A043124A13600F4BFC
S315080048501B68FB600D4B1A687B681A440D4B1B6876
S315080048609A4207D903F0ACFC02460C2313604FF0BA
S31508004870FF3306E0054B1A687B681344034A136046
S31508004880FB6818461037BD4680BD00BF10020020E1
S31508004890140200201452002080B483B000AF786060
S315080048A04FF0FF3318460C37BD465DF8047B70475A
S315080048B080B483B000AF786039603B684FF400522B
S315080048C05A60002318460C37BD465DF8047B7047CE
S315080048D080B483B000AF7860012318460C37BD4614
S315080048E05DF8047B704780B485B000AFF860B960A6
S315080048F07A60002318461437BD465DF8047B704776
S31508004900DFF834D0002103E00C4B5B5843500431E8
S315080049100B480C4B42189A42F6D30B4A02E0002386
S3150800492042F8043B094B9A42F9D300F013F803F016
S315080049305FFCFCF7E7FBFEE70000012044B5000832
S3150800494000000020EC010020F0010020F05B0020B0
S3150800495001F02CB880B400AF164A164BD3F888304D
S3150800496043F47003C2F88830134A134B1B6843F0AC
S3150800497001031360104B00229A600F4A0E4B1B6806
S3150800498023F0A85323F4102313600B4B4FF48052E3
S31508004990DA60094A084B1B6823F480231360064B28
S315080049A000229A61034B054A9A6000BFBD465DF82E
S315080049B0047B704700ED00E000100240000000088C
S315080049C080B485B000AFF860B9607A603B600B4A86
S315080049D0FB681A60FB68BA685A60FB687A689A606E
S315080049E0FB683A68DA60FB6800221A74FB681846A6
S315080049F01437BD465DF8047B704700BFE4AD000878
S31508004A0080B582B000AF78607B681B7C83F00103B9
S31508004A10DBB2002B0CD07B685B68184601F0AEFD54
S31508004A207B689B68184600F0CEF87B6801221A74EA
S31508004A30012318460837BD4680BDFFFF80B584B000
S31508004A4000AF78607B681846FFF7DAFF0346FB730A
S31508004A507B685B6A5B68184600F0B5F87B685B6A3A
S31508004A609B68184600F0AFF87B685B6A5B680021B4
S31508004A70184600F0FEF80120FCF706FB7B685B6A27
S31508004A805B680121184600F0F4F80120FCF7FCFAEF
S31508004A907B685B6A5B680021184600F0EAF80649FD
S31508004AA0786800F05FF87B68002283F82C20FB7B8F
S31508004AB018461037BD4680BDBCAD000880B58AB023
S31508004AC000AFF860B9607A603B60BA683B68134427
S31508004AD0122B23D8BB68DBB24033DBB23B753B688D
S31508004AE0DBB2013BDBB27B7507F1140302333A688C
S31508004AF07968184603F0B0FBF8683B689A1C07F11A
S31508004B001403194601F038FEBB681033FA681344DB
S31508004B1001333A687968184603F09EFB00BF2837C8
S31508004B20BD4680BD80B584B000AFF860B9607A60D4
S31508004B30F8687B681A680023B968FFF741FF084AD6
S31508004B40FB681A60FB687A685A62FB682833F9685A
S31508004B50184600F023F8FB6818461037BD4680BD96
S31508004B60D8AD000880B584B000AF786039600923F5
S31508004B70FB600223BB603B685A1CFB68012178680E
S31508004B80FFF79CFF3B6803F11002BB6810217868A9
S31508004B90FFF794FF00BF1037BD4680BD80B483B0D1
S31508004BA000AF786039607B683A681A607B68184697
S31508004BB00C37BD465DF8047B704780B483B000AF00
S31508004BC078603960FEE780B582B000AF78607B68B0
S31508004BD05B691946786800F004F800BF0837BD46D7
S31508004BE080BD80B582B000AF78603960786800F023
S31508004BF05DF87B681B7C1946786800F03AF87B6894
S31508004C005B683A681946786800F004F800BF083708
S31508004C10BD4680BDB0B58CB000AFF860B9607A60AB
S31508004C20BB6807F114041D460FCD0FC495E80300B1
S31508004C3084E803007B68002B03DB7B68BB620223E6
S31508004C40BB61FB681B7803F00F033B610123FB6222
S31508004C503B69012202FA03F37B61FB68DB6807F113
S31508004C60140211461846FFF787F800BF3037BD46CD
S31508004C70B0BD80B483B000AF78600B46FB707B682C
S31508004C801B7CFA789A4205D07B68DB687A6892685A
S31508004C909A6104E07B68DB687A6892689A6200BF6A
S31508004CA00C37BD465DF8047B7047FFFF80B584B0BE
S31508004CB000AF78607B681B78002B00DA0F331B1176
S31508004CC0FB60064AFB68134493F90030184600F067
S31508004CD0DFFF00BF1037BD4680BD00BF08000020BB
S31508004CE080B485B000AF78607B68DB681A697B683A
S31508004CF09B681340002B14BF01230023FB737B68BA
S31508004D001B7CFA7B9A4214BF01230023DBB21846A8
S31508004D101437BD465DF8047B7047FFFFF0B583B0D6
S31508004D2000AF78607B6819464FF00002104B1B688D
S31508004D304FF0000403FB02F501FB04F02844A1FB35
S31508004D400334021914460B494FF000025D1844EB70
S31508004D50020628463146084A4FF00003FBF7B0FF23
S31508004D6003460C46184621460C37BD46F0BD00BF23
S31508004D70040000203F420F0040420F0090B587B064
S31508004D8000AF786001F04AFDC7E904017868FFF7CB
S31508004D90C5FF0A460146D7E904345B1844EB02040A
S31508004DA0C7E90234D7E90201FCF793F900BF1C37BB
S31508004DB0BD4690BD80B582B000AF786039607B682B
S31508004DC03A681A607B681B68184600F033F87B68F7
S31508004DD018460837BD4680BD80B582B000AF7860FA
S31508004DE07B681B68184600F01BF87B68184608376E
S31508004DF0BD4680BD80B483B000AF786039607B68FB
S31508004E0018460C37BD465DF8047B704780B483B0FE
S31508004E1000AF786000BF0C37BD465DF8047B70476D
S31508004E2080B483B000AF786000BF0C37BD465DF82C
S31508004E30047B704780B582B000AF7860012178683E
S31508004E4000F005F8034618460837BD4680BD80B40D
S31508004E5083B000AF78603960012318460C37BD4629
S31508004E605DF8047B7047FFFF80B582B000AF7860BD
S31508004E703960094A7B681A607B683A685A607B68B9
S31508004E8008334FF0FF311846FFF7B4FF7B68184622
S31508004E900837BD4680BD00BF90AE000880B483B019
S31508004EA000AF7860044A7B681A607B6818460C373E
S31508004EB0BD465DF8047B704790AE000890B585B096
S31508004EC000AF78607B6808331846FFF79FFF7B685A
S31508004ED003F1080207F10C0311461846FFF76AFFAB
S31508004EE07B681B6814331B68786898470346FB720F
S31508004EF0FC7A07F10C031846FFF76EFF234618469F
S31508004F001437BD4690BD80B582B000AF78607B6827
S31508004F101B681C331B687868984703461846083789
S31508004F20BD4680BD80B582B000AF786039607B68C9
S31508004F3039681846FFF798FF034A7B681A607B684A
S31508004F4018460837BD4680BD68AE000880B582B0F1
S31508004F5000AF78607B685B685B681846FFF7C0FE41
S31508004F60034618460837BD4680BD80B582B000AFF7
S31508004F7078607B685B681B681846FFF7B1FE0346D6
S31508004F8018460837BD4680BD80B582B000AF786048
S31508004F907B685B685B6801211846FFF76AFE00BFFD
S31508004FA00837BD4680BD80B582B000AF78607B68A3
S31508004FB05B685B6800211846FFF75BFE00BF083791
S31508004FC0BD4680BD80B582B000AF78607B685B68FF
S31508004FD01B6801211846FFF74CFE00BF0837BD467F
S31508004FE080BD80B582B000AF78607B685B681B685F
S31508004FF000211846FFF73DFE00BF0837BD4680BDB5
S3150800500080B584B000AF78607868FFF7AEFF0346D6
S31508005010BB737868FFF79AFF03467B737B7B002B8D
S3150800502004D0BB7B002B01D0012300E00023FB73D7
S31508005030FB7B83F00103DBB2002B07D07B681B6880
S3150800504014331B68786898470346FB73FB7B18463E
S315080050501037BD4680BDFFFF80B584B000AF7860CD
S315080050607B685B685B681846FFF7ADFD7B685B6825
S315080050701B681846FFF7A7FD7B685B681B68184620
S31508005080FFF72EFE0346FB72FB7A83F00103DBB2C1
S31508005090002B3FD01420FFF771FE0023FB60FB684E
S315080050A0082B37DC7B685B681B681846FFF718FE19
S315080050B00346FB72FB7A002B2BD17B685B681B6867
S315080050C000211846FFF7D5FD0A20FFF757FE7B6833
S315080050D05B685B6800211846FFF7CBFD0A20FFF7DF
S315080050E04DFE7B685B681B6801211846FFF7C1FD0A
S315080050F00A20FFF743FE7B685B685B680121184658
S31508005100FFF7B7FD0A20FFF739FEFB680133FB609E
S31508005110C5E700BF7B685B681B681846FFF7E0FDBC
S315080051200346FB727B685B685B681846FFF7D8FD29
S315080051300346BB72FB7A002B04D0BB7A002B01D046
S31508005140012300E000237B72FB7A83F00103DBB2C4
S31508005150002B05D1BB7A83F00103DBB2002B0FD0FD
S31508005160FB7A002B01D0012100E00021BB7A002B3D
S3150800517001D0012300E000231A46044803F0D8FEB4
S315080051807B7A18461037BD4680BD00BF98AB00082D
S31508005190F0B583B000AF78607B6819464FF000021F
S315080051A0154B1B684FF0000403FB02F501FB04F0E6
S315080051B02844A1FB0334021914460BA2D2E90012B3
S315080051C05D1844EB02062846314609A3D3E90023B5
S315080051D0FBF776FD03460C46184621460C37BD46B6
S315080051E0F0BD00BFAFF30080FFC99A3B0000000086
S315080051F000CA9A3B000000000400002090B587B062
S3150800520000AF786001F00AFBC7E904017868FFF788
S31508005210BFFF0A460146D7E904345B1844EB02048B
S31508005220C7E90234D7E90201FBF753FF00BF1C3771
S31508005230BD4690BD80B584B000AF78607B681846DF
S31508005240FFF7A2FE0520FFF799FD0023FB60FB6828
S31508005250632B0EDC7B681846FFF778FE0346002BA7
S3150800526006D10120FFF78AFDFB680133FB60EEE7F4
S3150800527000BF7B681846FFF769FE0346002B05D179
S31508005280044B054A1921054802F06EFF00BF103786
S31508005290BD4680BDB4AB0008D8AE0008C0AB000858
S315080052A080B584B000AF78607B681846FFF78AFE41
S315080052B00520FFF763FD0023FB60FB68632B0EDC0C
S315080052C07B681846FFF751FE0346002B06D10120DE
S315080052D0FFF754FDFB680133FB60EEE700BF7B6810
S315080052E01846FFF742FE0346002B05D1044B054A34
S315080052F02A21054802F038FF00BF1037BD4680BD99
S3150800530014AC0008F8AE0008C0AB000880B582B03F
S3150800531000AF78600520FFF731FD7868FFF7C0FF1A
S315080053207868FFF787FF0520FFF728FD7B68184692
S31508005330FFF757FE0520FFF721FD00BF0837BD46DA
S3150800534080BD80B582B000AF78600520FFF716FDF6
S315080053507B681846FFF745FE7868FFF76BFF052060
S31508005360FFF70CFD7B681846FFF72CFE00BF0837D1
S31508005370BD4680BD80B582B000AF78600520FFF7D6
S31508005380FDFC7B681846FFF72CFE7868FFF752FF8E
S315080053900520FFF7F3FC7B681846FFF704FE00BFFD
S315080053A00837BD4680BD80B584B000AF786005205B
S315080053B0FFF7E4FC7B681846FFF704FE7868FFF7FA
S315080053C039FF0520FFF7DAFC7B681846FFF7CDFDA5
S315080053D00346FB737B681846FFF7E5FDFB7B83F006
S315080053E00103DBB218461037BD4680BD80B584B0D0
S315080053F000AF78600B46FB707B681846FFF7D3FD55
S315080054000520FFF7BBFC0023FB81FB89072B24DC67
S315080054107B681846FFF7C7FD40F6C410FFF7EEFE97
S3150800542097F90330002B03DA7868FFF739FF03E0B2
S315080054307B681846FFF7D5FD40F6C410FFF7DEFE79
S315080054407868FFF7F7FE0520FFF798FCFB785B0006
S31508005450FB70FB890133FB81D7E77B681846FFF7AA
S31508005460A2FD00BF1037BD4680BD80B584B000AF31
S3150800547078607B681846FFF796FD7B681846FFF745
S31508005480A1FD0520FFF77AFC00237B730023FB812F
S31508005490FB89072B1EDC7868FFF7CCFE0520FFF793
S315080054A06DFC7B7B5B007B737B681846FFF75DFDB5
S315080054B00346002B03D07B7B43F001037B737B6899
S315080054C01846FFF770FD0520FFF758FCFB890133E6
S315080054D0FB81DDE77B681846FFF765FD7B7B184691
S315080054E01037BD4680BD80B582B000AF78600B46E8
S315080054F0FB70FB7819467868FFF778FF7868FFF73E
